:020000040800F2
:100000004009002055020008B9520008BB20000832
:10001000B752000851050008595A000800000000B6
:100020000000000000000000000000005154000823
:100030005305000800000000DB520008D9540008F6
:100040006F0200086F0200086F0200086F020008CC
:100050006F0200086F0200086F0200086F020008BC
:100060006F0200086F0200086F0200086F020008AC
:100070006F0200086F0200086F0200086F0200089C
:100080006F0200086F0200086F0200086F0200088C
:100090006F0200086F0200086F0200086F0200087C
:1000A0006F0200083D5500086F0200083155000836
:1000B0006F0200086F0200086F0200086F0200085C
:1000C0006F0200086F0200086F0200086F0200084C
:1000D0006F020008ED5900086F0200086F02000867
:1000E0006F0200086F0200086F0200086F0200082C
:1000F0006F0200086F0200086F0200086F0200081C
:100100006F0200086F0200086F0200086F0200080B
:100110006F0200086F0200086F0200086F020008FB
:100120006F0200086F0200086F0200086F020008EB
:100130006F0200086F0200086F0200086F020008DB
:100140006F0200086F0200086F0200086F020008CB
:100150006F0200086F0200086F0200086F020008BB
:100160006F0200086F0200086F0200086F020008AB
:100170006F0200086F0200086F0200080000000014
:100180006F0200086F0200086F0200086F0200088B
:100190006F0200086F0200086F0200086F0200087B
:1001A0006F0200086F0200086F02000800F002F8FA
:1001B00000F041F80AA090E8000C82448344AAF1C0
:1001C0000107DA4501D100F036F8AFF2090EBAE8BE
:1001D0000F0013F0010F18BFFB1A43F0010318477B
:1001E000F4A5000014A60000103A24BF78C878C116
:1001F000FAD8520724BF30C830C144BF04680C602D
:10020000704700000023002400250026103A28BF74
:1002100078C1FBD8520728BF30C148BF0B60704778
:10022000782900F07980002070471FB505F010FF95
:100230001FBD10B510BD00F059F91146FFF7F5FFCD
:1002400005F048FC00F077F903B4FFF7F2FF03BCB8
:1002500005F003FC0948804709480047FEE7FEE730
:10026000FEE7FEE7FEE7FEE7FEE7FEE7FEE7FEE766
:1002700004480549054A064B70470000DD54000854
:10028000AD01000840030020400900204005002087
:1002900040050020704700000FB4044910B503AAC0
:1002A000029800F0F5F810BC5DF814FB2000002067
:1002B0002DE9F0410E460446002020622046E16808
:1002C000884730B3252805D0D4E901219047206A1A
:1002D000401CF2E7E168204600278847050018D057
:1002E000A5F14100192802D820354FF400673246A5
:1002F000294620462760FFF793FF40B1012804D02C
:10030000F61D26F007060836D8E7361DD6E728463C
:10031000DAE7206ABDE8F08170B504460D46214653
:100320001068AFF300802188090502D50F4A7A448E
:1003300002E00E4A7A440E32002104F1240305E063
:1003400000F00F060009965D5E54491C0028F7D1A5
:1003500020780023000704D5702D02D009B10223B4
:1003600011322046BDE8704000F038B878A4000093
:1003700010B5203AC0F00B80B1E81850203AA0E840
:100380001850B1E81850A0E81850BFF4F5AF5FEA74
:10039000027C24BFB1E81850A0E8185044BF18C927
:1003A00018C0BDE810405FEA827C24BF51F8043BCE
:1003B00040F8043B08BF7047D20728BF31F8023B22
:1003C00048BF11F8012B28BF20F8023B48BF00F8B6
:1003D000012B704770477047704770472DE9F04711
:1003E0000D4699469246044600F1240801688806A5
:1003F00004D5E06921F01001216000E00120A8424D
:1004000001DD471B00E00027A1697A1902EB090012
:10041000081AA0612078C00602D42046AFF30080FD
:10042000002608E0D4E901211AF806009047206A66
:10043000401C761C20624E45F4DB2078C0060AD5AD
:100440002046AFF3008006E0D4E901213020904738
:10045000206A401C2062381EA7F10107F4DC07E087
:10046000D4E9012118F805009047206A401C206259
:10047000281EA5F10105F3DC2046AFF300802078AB
:10048000000602D50220BDE8F0870120FBE700004E
:10049000074B70B50D467B4400F011F80446284622
:1004A00000F020F810B14FF0FF3070BD204670BD55
:1004B0002756000001694A1C02610878704700B5A0
:1004C0008FB0CDE901310021059105497944CDE98D
:1004D000031011466846FFF7EBFE0FB000BD0000A9
:1004E000E5FFFFFF007B00F080007047754600F0DD
:1004F0002BF8AE4605006946534620F007008546B6
:1005000018B020B5FFF7B4FEBDE820404FF000065C
:100510004FF000074FF000084FF0000B21F00701EB
:10052000AC46ACE8C009ACE8C009ACE8C009ACE82E
:10053000C0098D46704710B50446AFF300802046D1
:10054000BDE81040FFF780BE00487047DC02002085
:10055000FEE7704770B5B3F5804F05D06FF070417E
:1005600040F82210002070BD50F82230084C234083
:10057000D1E9004544EA05148D688E892D0245EACB
:10058000064589692C430C431C4340F82240E9E7A7
:100590000000F0CFF0B50C6850F82450194A15400F
:1005A000D1E90123D1E903671A433E4332434E693F
:1005B00032438E693243CE6932430E6A32434E6A09
:1005C00032438E6A3243CE6A3243CE6B32430E6B75
:1005D00032434E6B32432A43082B01D142F0400292
:1005E00040F824204A6BB2F5801F08D10A6832B166
:1005F0004FF480720A6104490268114301600020CF
:10060000F0BD00008000E0FF00011000F0B500EB3D
:10061000820253688E8903F04044D1E9003543EAF1
:1006200005138D682D0245EA06452B430E8A0D4DB4
:1006300005EB065633430E7D6F0107EB0666334329
:100640008E693343234353600268D20207D5426860
:10065000098A22F4700205EB015111434160002028
:10066000F0BD00000000F0FF30B5D1E901231A43CE
:10067000D1E9033423431A434B690D681A438B694C
:100680001A43D1E90734012D496A05686FF30E0555
:1006900005D01A4322430A432A43026008E0234359
:1006A00029430B43416803606FF30E010A43426024
:1006B000002030BD426942EA41014161002070479B
:1006C000F8B514460546D1E9000210438A686FF078
:1006D0001F03C96803EB421242EA4121084300901C
:1006E000286100F047F9064609E0601C07D024B1F4
:1006F00000F040F9801BA04201D90320F8BDA86991
:100700008006F2D40020F8BDF0B56FF00F05D1E9F6
:10071000003405EB04145B1E2E0123438C682F0369
:1007200006EB04244FEA054C23430D8A8E8ACC68DD
:10073000097E4FF07F4E07EB05450CEB06560EEB9E
:100740000161012A0CD082683F1107EB0434234376
:100750002B43334302F070420B43134383600FE09B
:10076000C2682B430B4302F070428168134301F0CF
:1007700070422103A1F5805131431143C360816070
:100780000020F0BD2DE9F84FDFF8A091002209F11B
:10079000040A0AF1040B4FF00F080BF1040E0126B6
:1007A0000B6896403340B34271D14C68022C01D0A3
:1007B000122C11D1D40800EB84073D6A5407E40ED3
:1007C00008FA04FC25EA0C05D1F810C00CFA04FC68
:1007D0004CEA050CC7F820C007685400032591F8BF
:1007E00004C0A5400CF0030CAF430CFA04FC4CEA27
:1007F000070CC0F800C04F68012F05D0022F03D0AE
:10080000112F01D0122F11D18768D1F80CC0AF433E
:100810000CFA04FC4CEA070CC0F808C04768B74360
:100820000E79C6F3001696403E434660C668AE4356
:100830008D68A5403543C5604C68E4006FD53C4CDD
:10084000256845F480452560246822F0030504F4FA
:1008500080440094374C2E19D6F808789407250F59
:1008600008FA05F4A743344CA04201D100242EE03D
:10087000324CA04201D1012429E0314CA04201D1E7
:10088000022424E02F4CA04202D103241FE046E0C2
:100890002D4CA04201D1042419E02C4CA04201D1DE
:1008A000052414E02A4CA04201D106240FE0294C73
:1008B000A04201D107240AE0274CA04201D108241C
:1008C00005E0264CA04201D1092400E00A24AC40F6
:1008D0003C43C6F80848D9F800404D464E689C4352
:1008E000F60300D51C432C60DAF8004055464E68EC
:1008F0009C43B60300D51C432C60DBF800405D46EA
:100900004E689C43F60200D51C432C60DEF8004084
:1009100075464E689C43B60200D51C432C60521CA1
:10092000102AFFF43CAFBDE8F88F0000003C014006
:100930004438024000300140000002400004024000
:1009400000080240000C0240001002400014024067
:1009500000180240001C0240002002400024024017
:100960000069084000D0012070470AB181617047DA
:100970000904FBE7014800687047000014000020EC
:1009800002480168491C0160704700001400002003
:100990000B4810B5016841F400710160016841F431
:1009A00080610160016841F480710160052000F000
:1009B000BFF90F2000F006F800F08AF9002010BD02
:1009C000003C024010B5044600F060FC4FF47A7120
:1009D000B0FBF1F000F094FF00222146501E00F021
:1009E00087F9002010BD2DE9F041044690F8A000E1
:1009F00015460F4601281DD0012684F8A06002206C
:100A000084F8A10005EB850000EBC50004EB800035
:100A100034223830FFF7ACFC2A463946204604F031
:100A200099FB2068466284F8A160002084F8A00049
:100A3000BDE8F0810220FBE770B5040004D094F813
:100A4000A100002510B106E0012070BD84F8A0507F
:100A5000204600F06FF8022084F8A1002068816928
:100A600021F070418161D4E901100143D4E903020E
:100A700010430143206882691143816120688268C4
:100A80002B490A408260A08A020420688368A66914
:100A90003343134383602068C2680A40C260A08B5E
:100AA00002042068C368266A33431343C360206886
:100AB00002690A400261A08C020420680369A66AE8
:100AC000334313430361206842690A404261A08DA9
:100AD000010420684269236B1A430A43426194F877
:100AE0003500020294F8360001042068C36A03F05E
:100AF0007F43C3622068C36A94F834601143334370
:100B00000B43C3622068416B41F0040141632068DC
:100B1000416B41F0020141632068816941F00101AC
:100B20008161C4F8A450012084F8A100002070BDA8
:100B300000F800F030B5364887B00025016841F074
:100B400080610160006800F08060059030481438D2
:100B5000016841F400010160016801F400010591A0
:100B6000016841F002010160016801F00201059194
:100B7000016841F020010160016801F02001059148
:100B8000016841F040010160016801F040010591F8
:100B9000016841F080010160016801F08001059168
:100BA000016841F4807101600068032400F48070E2
:100BB0000590202000900120CDE9020401906946B3
:100BC0001448FFF7DFFD4FF4806000900220CDE96C
:100BD00001050E20CDE9034069460F48FFF7D2FD1D
:100BE0004FF40C60009069460C48FFF7CBFD4FF4C2
:100BF0007E40009069460A48FFF7C4FD40F2F76066
:100C0000009069460748FFF7BDFD07B030BD000002
:100C10004438024000040240001402400018024020
:100C2000001C02400020024070B5044690F8A0006D
:100C30000E46012820D0012584F8A050022084F817
:100C4000A10003EB830000EBC30004EB800141F83B
:100C5000386F886A3044C1E90102C86A1044C8602C
:100C60001A46204604F076FA2068456284F8A150BE
:100C7000002084F8A00070BD022070BD2DE9F04175
:100C8000044690F8A0000F4601281FD0012584F8E3
:100C9000A050022084F8A10003EB830000EBC30006
:100CA00004EB80010026E1E90E672046C1E90262FB
:100CB000C1E90A721A4604F04DFA2068456284F8C8
:100CC000A15084F8A0600020BDE8F0810220FBE77D
:100CD00008B50020009008BD00F01F0201219140DE
:100CE0004009800000F1E020C0F8001170470000CA
:100CF000F0B40E4B1B68C3F30223C3F10704042CAA
:100D000000D904241D1D072D01D2002300E0DB1EA5
:100D1000012606FA04F56D1E0D409D409E40761E8C
:100D2000164045EA0601F0BC04F0C7BA0CED00E03D
:100D3000064A00F0070110684FF6FF03184040EA2A
:100D40000120034908431060704700000CED00E0EB
:100D50000000FA052DE9F8431D48016841F0805173
:100D600001600068012700F080500090380490FA7C
:100D7000A0F0DFF86080B0FA80F048F82070FFF74C
:100D8000F9FD04464FF47A75134E04E0FFF7F2FDC7
:100D9000001BA84213D87068C003F7D54FF4003089
:100DA00090FAA0F0B0FA80F048F82070FFF7E2FD6A
:100DB000044607E0FFF7DEFD001BA84202D903202E
:100DC000BDE8F88370688003F4D50020F8E70000E0
:100DD0004038024000000E42007000402DE9F84FFC
:100DE00004460068DFF878829E4DC10747F6C07A56
:100DF0004FF0E0464FF0010B4FF0000901D18007A2
:100E00004BD59949C1F86890FFF7B4FD074604E057
:100E1000FFF7B0FDC01B64287ED828680001F7D416
:100E200020789249C0070DD09AFAAAF26068B2FA07
:100E300082F2904096FAA6F3A268B3FA83F39A403E
:100E4000104308602078800718D5086896FAA6F243
:100E500000F0E040B2FA82F2D0406268237B920157
:100E600042EA036242EA00700860D8F80010E269C2
:100E700021F01F01521E1143C8F800107A49C1F831
:100E800068B0FFF777FD074604E0FFF773FDC01B6E
:100E9000642841D828680001F7D52068410701D4AB
:100EA000000776D57049C1F87090FFF763FD0746DB
:100EB00004E0FFF75FFDC01B64282DD82868C043FD
:100EC0008000F6D520786A4F40074FF0706C29D526
:100ED000386896FAA6F100F0E040B1FA81F1C84016
:100EE0009AFAAAF22169B2FA82F291409CFAACF322
:100EF0006269B3FA83F39A40114396FAA6F2B2FA02
:100F000082F2904001433960D8F800106FF0FF037F
:100F100021F4F851226A00E079E003EB0222114348
:100F2000C8F800102078000723D538689CFAACF187
:100F300000F07060B1FA81F1C8409AFAAAF2216912
:100F4000B2FA82F291409CFAACF2B2FA82F290408C
:100F5000014396FAA6F2A069B2FA82F290400143E8
:100F60003960D8F80010626A21F440311143C8F8A2
:100F700000103D49C1F870B0FFF7FCFC064604E0E4
:100F8000FFF7F8FC801B642841D82868C043800024
:100F9000F6D42078800651D532484F46403001685B
:100FA00041F0805101600068324E00F080500090A6
:100FB000306840F480703060FFF7DCFC054604E0E8
:100FC000FFF7D8FC401B642821D83068C005F7D54E
:100FD000264E143E3068218D00F4407001F44071BB
:100FE00088422BD03068244920F44070C1F800B00A
:100FF0000F603060800710D5FFF7BCFC054641F25A
:10100000883707E0FFF7B6FC401BB84202D903203F
:10101000BDE8F88F30688007F4D5A06A1149C0F3A5
:1010200001220831032A13D0086820F4F810086060
:101030003068218DC1F30B01084330602078C00671
:1010400004D50E4994F82C00C1F8E0010020DFE738
:101050000A680B4B22F4F812184002430A60E7E7D3
:101060008C38024000380240000047428438024079
:101070008838024000700040400E4742001047424E
:10108000FFFCFF0F2DE9F05FDFF8F8A104460F46E3
:10109000DAF80000DFF8F08100F00F02C8B27A49F8
:1010A000814641F2883608F10808BA4261D2024608
:1010B0008AF80020DAF8000000F00F00B8427DD175
:1010C0002078800707D5D8F80020A36822F0F00226
:1010D0001A43C8F800202078C0072DD06068012886
:1010E0001AD002281BD0032819D0096889070029C3
:1010F00064DAD8F80010474621F003010143C8F82C
:101100000010FFF737FC0546606801280FD0022861
:1011100018D003281CD027E009688903E7E709688D
:101120008901E4E7FFF726FC401BB04258D8386835
:10113000C0F381000128F5D188E0FFF71BFC401BBC
:10114000B0424DD83868C0F381000228F5D17DE067
:101150003868FFF70FFC401BB042F9D940E0FFF7B9
:1011600009FC401BB0423BD8386810F00C0FF6D198
:101170006CE02078800707D5D8F80020A36822F01B
:10118000F0021A43C8F800202078C0074CD06068ED
:10119000012828D0022829D0032827D009688907E8
:1011A000002949DAD8F8002022F003020243C8F8E7
:1011B0000020FFF7DFFB0546606800E03CE0012807
:1011C0001DD0022829D0032838D0B34646463068BF
:1011D00010F00C0F28D0FFF7CDFB411B5945F6D975
:1011E0000320BDE8F09F09688903D9E709688901F0
:1011F000D6E7FFF7BFFB411B594502D9F0E7B346DD
:1012000046463068C0F381000128F2D10CE0FFF7B8
:10121000B1FB411B594502D9E2E7B3464646306867
:10122000C0F381000228F2D18AF80090DAF80000B9
:1012300000F00F00B84209D00120D2E744462068F0
:10124000FFF798FB401BB042F9D9C9E72078400767
:1012500007D5D8F80010E26821F4E0511143C8F82E
:1012600000102078000708D5D8F80010226921F472
:10127000604141EAC201C8F800100F20FFF7A2FB4D
:101280000020AEE7003C02400038024010B500F0FC
:1012900043F808490968F02292FAA2F201F0F0013D
:1012A000B2FA82F2D140044A515CC8400349086056
:1012B00010BD0000083802405A60000800000020FD
:1012C00010B5FFF7E3FF074909684FF4E05292FABF
:1012D000A2F201F4E051B2FA82F2D140024A515C2A
:1012E000C84010BD083802405A60000810B5FFF72A
:1012F000CDFF074909684FF4604292FAA2F201F467
:101300006041B2FA82F2D140024A515CC84010BD3D
:10131000083802405A60000830B51948006810F0DB
:101320000C01184812D0184C04290ED008290DD1F0
:10133000134A121F1168136801F03F015D0247F65E
:10134000C07304D5B4FBF1F003E0204630BDB0FB20
:10135000F1F01168194093FAA3F3B3FA83F3D9407B
:10136000484311684FF4403292FAA2F201F440313E
:10137000B2FA82F2D140491C4900B0FBF1F030BD15
:10138000083802400024F40040787D012DE9F84F30
:1013900004460078DFF8FCA2BF4DC0074FF00006FE
:1013A00048D0DAF800105046C1F38101012908D075
:1013B0000068C0F3810002280AD1281D006840029D
:1013C00006D52868800335D56068002873D031E0E1
:1013D000DFF8C49209F1020989F80060FFF7CAFA40
:1013E000074641F2883804E0FFF7C4FAC11B4145C3
:1013F0007AD828688003F7D4207989F800006068DB
:1014000060B1FFF7B7FA074604E0FFF7B3FAC11B74
:101410004145EDD828688003F7D50BE0FFF7AAFA1D
:10142000074604E0FFF7A6FAC11B4145E0D828684B
:101430008003F7D42078DFF86492800744D5DAF887
:101440000010504611F00C0F4FF0F80809D000685A
:10145000C0F3810002280BD18E48001F00684002B3
:1014600006D42868800714D5E068012823D110E04D
:10147000E068D0B10120C9F80000FFF77BFA074609
:1014800004E0FFF777FAC01B6428B1D8286880070A
:10149000F7D5286898FAA8F22169B2FA82F220F00A
:1014A000F8009140084328600EE0C9F80060FFF79B
:1014B00061FA074605E0EAE0FFF75CFAC01B642822
:1014C00012D828688007F7D42078000725D5DFF8E0
:1014D000C4817348616908F16C0881B10121016020
:1014E000FFF748FA074605E07EE0FFF743FAC01B26
:1014F000642879D8D8F800008007F6D50DE006609A
:10150000FFF738FA074604E0FFF734FAC01B6428F7
:101510006AD8D8F800008007F6D42078400753D561
:101520005C483830016841F0805101600068DFF8A4
:10153000748100F080500090D8F8001041F4807160
:10154000C8F80010FFF716FA074604E0FFF712FA92
:10155000C01B642848D8D8F80000C005F6D5DFF8CD
:1015600034B10BF1680B8BF80060FFF703FA074604
:1015700041F2883804E0FFF7FDF9C11B41457ED8F0
:10158000DBF800008007F6D4207A8BF80000A06812
:1015900068B1FFF7EFF9074604E0FFF7EBF9C11B6D
:1015A00041456CD8DBF800008007F6D50CE0FFF76A
:1015B000E1F9074604E0FFF7DDF9C11B41455ED8BC
:1015C000DBF800008007F6D4A069E8B3DAF8001071
:1015D000C1F3810102295AD0022806D0C9F86060FF
:1015E000FFF7C8F904464DE049E04F46C9F860608E
:1015F000FFF7C0F9064604E0FFF7BCF9801B64283A
:101600003DD828688001F7D4D4E90701084347F69C
:10161000C07191FAA1F1626AB1FA81F18A40A16ABE
:101620004FF0FF3303EB51014FF4403393FAA3F330
:10163000B3FA83F399400A4310434FF0706292FA71
:10164000A2F2B2FA82F200E01FE0E16A91400843A0
:101650001049091F086001203866FFF78BF904461E
:1016600004E0FFF787F9001B642808D82868800188
:10167000F7D50AE0FFF77EF9001B642802D90320A2
:10168000BDE8F88F28688001F4D40020F8E7012035
:10169000F6E70000083802400038024000004742E8
:1016A000800E47420070004070B50D46040003D024
:1016B00094F82C0010B107E0012070BD002084F8E0
:1016C0002D00204600F012F8022084F82C00211D85
:1016D0002068FEF7C9FFD4E900022946FFF714F895
:1016E000012084F82C00002070BD0000304800B5B7
:1016F000016887B041F001010160006800F001005D
:1017000005902B480838016841F004010160016828
:1017100001F004010591016841F0080101600168D0
:1017200001F008010591016841F0100101600168B4
:1017300001F010010591016841F02001016001688C
:1017400001F020010591016841F04001016000684D
:10175000694600F0400005900D20009002200190A5
:1017600001200290032003900C2004901148FFF701
:1017700009F84CF20370009069460F48FFF702F831
:101780004FF68370009069460C48FEF7FBFF4FF65A
:101790003F00009069460A48FEF7F4FF48F2371010
:1017A000009069460748FEF7EDFF07B000BD000056
:1017B0003838024000080240000C0240001002408D
:1017C000001402400018024010B5044690F82C00A6
:1017D000022809D0022084F82C002068FEF76AFF56
:1017E000012084F82C00002010BD70B5044690F84C
:1017F0002C000D4602280CD0022084F82C00206812
:10180000FEF75EFF2868022804D0012084F82C002F
:10181000002070BD0520F9E770B515460E4604009E
:1018200003D094F8490010B107E0012070BD0020FA
:1018300084F84800204600F01BF804F108012068F5
:10184000FEF7A8FE3146A2682068FEF7DFFED4E965
:1018500001022946236BFEF77DFEA168206850F83F
:10186000212042F0010240F82120002070BD00003C
:101870001A4800B5016887B041F0010101600068B5
:1018800000F00100059015480838016841F0080192
:101890000160016801F008010591016841F0100143
:1018A00001600068694600F0100005904EF2B370C8
:1018B00000900220019001200290032003900C2050
:1018C00004900748FEF75EFF4FF68070009069466F
:1018D0000448FEF757FF07B000BD0000383802404B
:1018E000000C0240001002404FF0E021042808697B
:1018F00003D020F004000861704740F00400FAE7CC
:1019000010B5401EB0F1807F01D3012010BD4FF013
:10191000E02460610F21601703F0CFFC0020A0617C
:1019200007202061002010BD704770472DE9F0416D
:1019300000682E49884256D12D48D0F820022D4DFE
:101940002D4C00264FF6F57770B12868016A3940B2
:1019500001622868016A41F002010162286846625A
:10196000207840F010003DE00021224800F026FAE7
:1019700080B2608029680A6A3A400A6229680A6A65
:101980000A622178CA062AD50A064FF4F9731DD5D2
:10199000A0F22D129A4202D86068400009E0A0F23D
:1019A00079524FF4C7739A4205D86068400040F0FE
:1019B0000100606013E0A0F6990098420FD86078AB
:1019C000401C607001F0F000207008E0A0F580502D
:1019D0006938984203D841F0800020706670207802
:1019E00020F010002070BDE8F081000000000140F0
:1019F00000004042A0020020340000202DE9F04108
:101A0000044690F838000D4601283CD0012684F8A1
:101A10003860022084F83900A2B3042A45D0206837
:101A2000082A54D0D5E90027E968036A23F48053D3
:101A30000362D0F81CC0036A2CF4407C4CEA0727F0
:101A40004FF6FF7C27F470470CEA013139434FF41D
:101A5000204723F4204307EA02321A43C16102629D
:101A60002068C16921F44061C1612068C169AA6828
:101A700041EA0221C16184F83960002084F838000D
:101A8000BDE8F08101E00220FAE7D5E90012EB6839
:101A9000206803F0C5FD2068816921F00C01816197
:101AA00020688169AA6811430FE0D5E90012EB684C
:101AB000206803F0F7FD2068816921F440618161AD
:101AC00020688169AA6841EA02218161D3E7D5E9EA
:101AD000002C2F7B016A21F480710162C169036AC5
:101AE00021F0030141EA0C0121F0F00C39074FF419
:101AF00020674CEA116123F4206307EA02221A43AB
:101B0000C16102622068C16921F00C01C1612068D5
:101B1000C169AA681143ADE710B5040003D094F879
:101B2000390010B107E0012010BD002084F8380012
:101B3000204600F00DF8022084F83900211D2068AD
:101B400003F002FD012084F83900002010BD0000E0
:101B50001A4800B5016887B041F0010101600068D2
:101B600000F00100059015481438016841F00101AA
:101B700001600068032100F0010005904FF48070BF
:101B80000090022001900120CDE9020104906946F5
:101B90000B48FEF7F7FD032201211B20FFF7A8F8F1
:101BA0001B20FFF799F8022201211920FFF7A0F866
:101BB0001920FFF791F807B000BD0000443802403B
:101BC0000000024010B50268044631B1042908D073
:101BD000082915D00C2908D116E0D06840F0020081
:101BE00002E0D06840F00400D0600122206803F0D9
:101BF0000BFD2068016841F001010160002010BD6B
:101C0000D06840F00800EFE7D06840F01000EBE744
:101C100070B50446006801694FF00005C9438907A3
:101C200015D4C168C943890711D4E91E0161012097
:101C30002076206880698007204602D0FFF776FE74
:101C400004E000F098F8204600F096F82576206829
:101C50000169C943490717D4C168C943490713D467
:101C60006FF004010161022020762068806910F481
:101C7000407F204602D0FFF759FE04E000F07BF8D9
:101C8000204600F079F8257620680169C9430907E4
:101C900016D4C168C943090712D46FF00801016165
:101CA000042020762068C0698007204602D0FFF714
:101CB0003DFE04E000F05FF8204600F05DF8257678
:101CC00020680169C943C90617D4C168C943C90658
:101CD00013D46FF010010161082020762068C069DC
:101CE00010F4407F204602D0FFF720FE04E000F011
:101CF00042F8204600F040F8257620680169C94383
:101D0000C90708D1C168C943C90704D1891E016147
:101D1000204600F033F820680169C943090609D458
:101D2000C168C943090605D46FF0800101612046EE
:101D3000FFF7FAFD20680169C943490609D4C16863
:101D4000C943490605D46FF040010161204600F007
:101D500057F820680169C94389060BD4C168C94393
:101D6000890607D46FF0200101612046BDE870406C
:101D7000FFF7DBBD70BD70477047000000680D497C
:101D8000884215D10C490878020611D520F01000C0
:101D90000870020702D140F040000870C0B200F0A5
:101DA0000F020E2A01D2401C01E000F07000087002
:101DB00070470000000001403400002090F83830E7
:101DC0000022012B0AD0012380F8383041B10429C8
:101DD00009D008290AD00C290DD10AE00220704749
:101DE00001684A6B07E001688A6B04E00168CA6B0E
:101DF00001E001680A6C002180F838101046704735
:101E00007047704738B5016804460868CA68C0F36F
:101E1000000002F4807238B132B10868486800905E
:101E2000E06B40F00100E06308684A69C0F34000DD
:101E300002F0010238B132B1086848680090E06BE6
:101E400040F00400E06308684A69C0F3800002F0D3
:101E5000010238B132B1086848680090E06B40F088
:101E60000200E06308684A69C0F3C00002F00102A2
:101E700038B132B1086848680090E06B40F0080063
:101E8000E0630868C968C0F3401001F0200118B190
:101E900011B1204603F021FC20680168C068C1F33D
:101EA000C01100F0800019B110B1204603F022FDEE
:101EB00021680868CA68C0F3801002F0400201255A
:101EC00068B162B1CA68204622F04002CA6094F844
:101ED000391032290CD080F8395000F0EDF8E06B61
:101EE000002804D084F839502046FFF78AFF38BD17
:101EF000222180F83910F0E770B5040004D094F87E
:101F00003900002510B106E0012070BD84F838507A
:101F1000204600F021F8022084F839002068C168CA
:101F200021F40051C160204603F02AFC20680169B9
:101F300021F4904101612068416921F02A01416149
:101F40002068C16841F40051C160E563012084F854
:101F50003900002070BD000030B5044600682049FB
:101F600087B0884239D11F48016841F00101016002
:101F7000006800F0010005901A481430016841F033
:101F8000100101600068012100F0100005904FF47D
:101F9000007000900220CDE9010103900720124D4E
:101FA000049069462846FEF7EDFB28150090694627
:101FB0002846FEF7E7FB2068C16821F04001C160B8
:101FC0002068C16841F02001C1602520FEF784FE31
:101FD000032211462520FEF78BFE07B030BD00001E
:101FE0000010014030380240000002402DE9F04767
:101FF000044690F8390099460D46012801D0122870
:1020000057D125B31AB394F83800012851D00126CE
:1020100084F838600027E76394F83900122819D053
:10202000222084F83900A285E2854FF48058E08DA3
:102030004B46401EE085A0684FF0000240454FF03F
:102040002001204616D103F088FCB0B904E001203D
:10205000BDE8F0873220E4E7206900282068406866
:1020600003D0C1B225F8011B12E0C0F3080125F826
:10207000021B0DE003F071FC08B10320E8E72069C2
:1020800000282068406801D000F07F0005F8010BAF
:10209000E08D0028CBD194F83900322805D084F89F
:1020A000396084F838700020D2E7122084F83900B3
:1020B000F7E70220CCE770477047FEE770B51B4892
:1020C00086B00025016841F001010160016801F05E
:1020D00001010591016841F004010160016801F00E
:1020E00004010591016841F080010160006803244A
:1020F00000F08000059002200126CDE90204CDE920
:10210000006569460A48FEF73DFB700303948DE8BD
:10211000610069460748FEF735FB0C2000906946D0
:102120000548FEF72FFB06B070BD000030380240B6
:102130000000024000080240001C024070B50E4939
:102140000E4A064608881268002422B13046BDE8CF
:10215000704002F0C1BD4D8800214543084602F0A1
:1021600015FC02F081FDB1B2054801E00180641C5C
:10217000AC42FBD370BD000094010020800200201F
:10218000000008602DE9F05F394C3A4DA0712968D4
:1021900039B102F0C1FDE88A2080288B6080BDE85B
:1021A000F09F33492C232A2589884FF0F00949F202
:1021B000413A2B2645F2105B4FF4305E4FF44877DE
:1021C0004FF4A07845F2103C4FF4F07258B1A4F8E7
:1021D0000080A4F80290514501D0614529D12381A6
:1021E0006581A68139E0A4F80090A4F802805145E9
:1021F00001D0614508D123816581A681614531D136
:10220000A4F8008062802DE0594508D1A4F808E0C8
:102210004FF4285060814FF42C50A08106E0A1F5C6
:10222000C85063381ED123816681A58122806780D2
:1022300018E0594508D1A4F808E04FF4285060810F
:102240004FF42C50A08106E0A1F5C850633804D1AA
:1022500023816581A68127806280614502D1228029
:10226000A4F80280BDE8F05F002002F0B3BA0000DD
:1022700094010020800200202DE9F04104463A48F4
:102280000D46006820B12046BDE8F04102F058BD7F
:10229000364E270A3146B0884989A0F513434FEAE4
:1022A0001528413B0CD0A0F5A643103B08D0A0F563
:1022B000AA43103B11D0A0F5C853633B27D04BE095
:1022C000084602F0C5FC384602F0B6FCE0B202F067
:1022D000B3FCB08902F0BCFC38E0084602F0B8FC60
:1022E000384602F0A9FC7089401C80B202F0B0FCB4
:1022F000E0B202F0A1FCB08902F0AAFC404602F074
:102300009BFCB089401C80B202F0A2FC21E0B079B5
:1023100018B93088001B401E84B2084602F098FCB1
:10232000270A384602F088FCE0B202F085FC384605
:1023300002F082FCE0B202F07FFCB08902F088FC7F
:10234000404602F079FCE8B202F076FC404602F02A
:1023500073FCE8B202F070FC054930890880881CE3
:102360000280BDE8F081000080020020940100207E
:10237000FEFF07602DE9F8431F46144B804608987E
:102380001B6833B100903B46404602F0F7FCBDE8C5
:10239000F883A2EB0802521C96B20C4685B2DFF815
:1023A00030900FE02146404602F0F0FA02F05CFC6B
:1023B0000020494602E00D80401C80B2B042FAD3B2
:1023C000641CA4B2BC42EDD9E1E700008002002009
:1023D000000008602DE9F04F95B002F05FFEFE4D61
:1023E0004FF0010AA5F15009A88049F2413B45F29E
:1023F000103645F2105441F6631818B102F018FD7A
:1024000002F08BB9F5480027016841F00201016034
:10241000006810A900F0020000902020CDE9100A09
:102420000320CDE912A0EE48FEF7ACF94FF02041B1
:102430004846C9F80010EB49C0E901171021C9F856
:102440000C70C0E90471C9F818700902C9F81C7051
:10245000C0E909718900C0E90B71C9F834708901BC
:10246000C9E90E7146210B910F20CDE90907CDE98D
:1024700002070490D8480F9702AA09A90897503874
:10248000FFF7CAF9322003F0F3FAD32002F0E0FBA1
:1024900002F06EF9A88002F06BF9A88002F068F9EA
:1024A0004FF6FF7202EA0020A88002F061F9A988C5
:1024B0005F460843A880B84248D0D42002F0C8FB49
:1024C00002F056F9A88002F053F9A88002F050F902
:1024D00002EA0020A88002F04BF9A9880843A880EE
:1024E000B04233D04FF45A4002F0B2FB02F040F950
:1024F000A8804FF45B4002F0ABFB02F039F902EA2E
:102500000020A8804FF45C4002F0A2FB02F030F9FA
:10251000A9880843A880B0F5004F7DD0A04215D00F
:10252000A12002F095FB02F023F9A88002F020F927
:1025300002EA0020A88002F01BF9A9880843A0F550
:10254000AE41A880613901D1A5F80480A988A6A070
:10255000FDF7A2FEA888B8427ED1CF2002F078FB1A
:10256000002002F069FBC12002F066FB302002F07F
:1025700063FBED2002F06CFB642002F05DFB0320A6
:1025800002F05AFB122002F057FB812002F054FBAC
:10259000E82002F05DFB852002F04EFB102002F0E7
:1025A0004BFB7A2002F048FBCB2002F051FB392094
:1025B00002F042FB2C2002F03FFB002002F03CFB2B
:1025C000342002F039FB022002F036FBF72002F043
:1025D0003FFB202002F030FBEA2002F039FB002014
:1025E00002F02AFB002002F027FBC02002F030FBA3
:1025F0001B2002F021FBC12002F02AFB012002F087
:102600001BFBC52002F024FB302002F015FB30201C
:1026100002F012FBC72000E0B7E002F019FBB72080
:1026200002F00AFB362002F013FB482002F004FB04
:102630003A2002F00DFB552002F0FEFAB12002F024
:1026400007FB002002F0F8FA1A2002F0F5FAB62093
:1026500002F0FEFA0A2000E099E002F0EDFAA22072
:1026600002F0EAFAF22002F0F3FA002002F0E4FAB3
:10267000262002F0EDFA012002F0DEFAE02002F05E
:10268000E7FA0F2002F0D8FA2A2002F0D5FA282023
:1026900002F0D2FA082002F0CFFA0E2002F0CCFAB3
:1026A000082002F0C9FA542002F0C6FAA92002F06C
:1026B000C3FA432002F0C0FA0A2002F0BDFA0F204C
:1026C00002F0BAFA002002F0B7FA002002F0B4FAE1
:1026D000002002F0B1FA002002F0AEFAE12002F090
:1026E000B7FA002002F0A8FA152002F0A5FA172088
:1026F00002F0A2FA072002F09FFA112002F09CFAE1
:10270000062002F099FA2B2002F096FA562002F0E9
:1027100093FA3C2002F090FA052002F08DFA102086
:1027200002F08AFA0F2002F087FA3F2002F084FAC2
:102730003F2002F081FA0F2002F07EFA2B2002F0F7
:1027400087FA002002F078FA002002F075FA0120E2
:1027500002F072FA3F2002F06FFA2A2002F078FAB3
:10276000002002F069FA002002F066FA002002F070
:1027700063FAEF2002F060FA112002F069FA782083
:1027800003F076F9292001F00BBFAC80DEE6B04201
:102790007ED1ED2002F05CFA012002F04DFAFE201D
:1027A00002F04AFAEE2002F053FADE2002F044FA78
:1027B000212002F041FAF12002F04AFA012002F051
:1027C0003BFADF2002F044FA102002F035FAC42070
:1027D00002F03EFA8F200FE09401002030380240D2
:1027E00000040240040100A0204C43442049443A24
:1027F00025780D0A0000000002F01EFAC62002F043
:1028000027FA002002F018FAE22002F015FAE2207E
:1028100002F012FAE22002F00FFABF2002F018FADA
:10282000AA2002F009FAB02002F012FA0D2002F0FC
:1028300003FA002002F000FA0D2002F0FDF900205A
:1028400002F0FAF9112002F0F7F9002002F0F4F991
:10285000192002F0F1F9002002F0EEF9212002F037
:10286000EBF9002002F0E8F92D2002F0E5F9002054
:1028700002F0E2F93D2002F0DFF9002002F0DCF97D
:102880005D2002F0D9F9002002F0D6F95D2000E0C9
:10289000FEE302F0D1F9002002F0CEF9B12002F0FF
:1028A000D7F9802002F0C8F9002002F0C5F98B208A
:1028B00002F0C2F9002002F0BFF9962002F0BCF944
:1028C000002002F0B9F9B22002F0C2F9002002F0B3
:1028D000B3F9002002F0B0F9022002F0ADF90020B7
:1028E00002F0AAF9032002F0A7F9002002F0A4F9EF
:1028F000B32002F0ADF9002002F09EF9002002F0B2
:102900009BF9002002F098F9002002F095F90020D0
:1029100002F092F9002002F08FF9002002F08CF909
:10292000002002F089F9002002F086F9002002F070
:1029300083F9002002F080F9002002F07DF90020E8
:1029400002F07AF9002002F077F9002002F074F921
:10295000002002F071F9002002F06EF9002002F070
:102960006BF9002002F068F9002002F065F9002000
:1029700002F062F9002002F05FF9002002F05CF939
:10298000002002F059F9B42002F062F98B2002F025
:1029900053F9002002F050F9962002F04DF9002082
:1029A00002F04AF9A12002F047F9002002F044F9B0
:1029B000B52002F04DF9022002F03EF9002002F0AD
:1029C0003BF9032002F038F9002002F035F9042029
:1029D00002F032F9002002F02FF9B62002F038F9A7
:1029E000002002F029F9002002F026F9B72002F0B9
:1029F0002FF9002002F020F9002002F01DF93F20FD
:102A000002F01AF9002002F017F95E2002F014F922
:102A1000002002F011F9642002F00EF9002002F00B
:102A20000BF98C2002F008F9002002F005F9AC2027
:102A300002F002F9002002F0FFF8DC2002F0FCF8BE
:102A4000002002F0F9F8702002F0F6F8002002F001
:102A5000F3F8902002F0F0F8002002F0EDF8EB20FF
:102A600002F0EAF8002002F0E7F8DC2002F0E4F8D7
:102A7000002002F0E1F8B82002F0EAF8002002F0AD
:102A8000DBF8002002F0D8F8002002F0D5F8002092
:102A900002F0D2F8002002F0CFF8002002F0CCF8CB
:102AA000002002F0C9F8002002F0C6F8BA2002F0B7
:102AB000CFF8242002F0C0F8002002F0BDF800207A
:102AC00002F0BAF8002002F0B7F8C12002F0C0F816
:102AD000202002F0B1F8002002F0AEF8542002F0FD
:102AE000ABF8002002F0A8F8FF2002F0A5F80020C3
:102AF00002F0A2F8C22002F0ABF80A2002F09CF823
:102B0000002002F099F8042002F096F8002002F06C
:102B100093F8C32002F09CF83C2002F08DF80020CE
:102B200002F08AF83A2002F087F8002002F084F8D8
:102B3000392002F081F8002002F07EF8372002F000
:102B40007BF8002002F078F83C2002F075F80020B5
:102B500002F072F8362002F06FF8002002F06CF8F4
:102B6000322002F069F8002002F066F82F2002F00F
:102B700063F8002002F060F82C2002F05DF80020DD
:102B800002F05AF8292002F057F8002002F054F819
:102B9000262002F051F8002002F04EF8242002F026
:102BA0004BF8002002F048F8242002F045F80020FD
:102BB00002F042F8232002F03FF8002002F03CF837
:102BC0003C2002F039F8002002F036F8362002F0FE
:102BD00033F8002002F030F8322002F02DF8002007
:102BE00002F02AF82F2002F027F8002002F024F843
:102BF0002C2002F021F8002002F01EF8292002F01B
:102C00001BF8002002F018F8262002F015F800202A
:102C100002F012F8242002F00FF8002002F00CF865
:102C2000242002F009F8002002F006F8232002F028
:102C300003F8002002F000F8C42002F009F8622036
:102C400001F0FAFF002001F0F7FF052001F0F4FF8A
:102C5000002001F0F1FF842001F0EEFF002001F0E0
:102C6000EBFFF02001F0E8FF002001F0E5FF182065
:102C700001F0E2FF002001F0DFFFA42001F0DCFF03
:102C8000002001F0D9FF182001F0D6FF002001F04C
:102C9000D3FF502001F0D0FF002001F0CDFF0C2029
:102CA00001F0CAFF002001F0C7FF172001F0C4FFA8
:102CB000002001F0C1FF952001F0BEFF002001F0CF
:102CC000BBFFF32001F0B8FF002001F0B5FFE620C4
:102CD00001F0B2FF002001F0AFFFC52001F0B8FF06
:102CE000322001F0A9FF002001F0A6FF442001F0EE
:102CF000A3FF002001F0A0FF652001F09DFF002050
:102D000001F09AFF762001F097FF002001F094FF78
:102D1000882001F091FF002001F08EFFC62001F015
:102D200097FF202001F088FF002001F085FF172089
:102D300001F082FF002001F07FFF012001F07CFF05
:102D4000002001F079FFC72001F082FF002001F090
:102D500073FF002001F070FF002001F06DFF0020E4
:102D600001F06AFFC82001F073FF002001F064FF4A
:102D7000002001F061FF002001F05EFF002001F063
:102D80005BFFC92001F064FF002001F055FF002027
:102D900001F052FF002001F04FFF002001F04CFF36
:102DA000002001F049FF002001F046FF002001F063
:102DB00043FF002001F040FF002001F03DFF002014
:102DC00001F03AFF002001F037FF002001F034FF4E
:102DD000002001F031FF002001F02EFF002001F063
:102DE0002BFF002001F028FFE02001F031FF16202A
:102DF00001F022FF002001F01FFF1C2001F01CFF4A
:102E0000002001F019FF212001F016FF002001F041
:102E100013FF362001F010FF002001F00DFF4620C7
:102E200001F00AFF002001F007FF522001F004FF2B
:102E3000002001F001FF642001F0FEFE002001F0FF
:102E4000FBFE7A2001F0F8FE002001F0F5FE8B2059
:102E500001F0F2FE002001F0EFFE992001F0ECFEFF
:102E6000002001F0E9FEA82001F0E6FE002001F0BC
:102E7000E3FEB92001F0E0FE002001F0DDFEC420F9
:102E800001F0DAFE002001F0D7FECA2001F0D4FEE6
:102E9000002001F0D1FED22001F0CEFE002001F092
:102EA000CBFED92001F0C8FE002001F0C5FEE020D5
:102EB00001F0C2FE002001F0BFFEF32001F0BCFED5
:102EC000002001F0B9FEE12001F0C2FE162001F061
:102ED000B3FE002001F0B0FE1C2001F0ADFE00208A
:102EE00001F0AAFE222001F0A7FE002001F0A4FEBE
:102EF000362001F0A1FE002001F09EFE452001F0E9
:102F00009BFE002001F098FE522001F095FE00206B
:102F100001F092FE642001F08FFE002001F08CFE93
:102F20007A2001F089FE002001F086FE8B2001F05E
:102F300083FE002001F080FE992001F07DFE00203C
:102F400001F07AFEA82001F077FE002001F074FE67
:102F5000B92001F071FE002001F06EFEC42001F0E6
:102F60006BFE002001F068FECA2001F065FE002023
:102F700001F062FED22001F05FFE002001F05CFE55
:102F8000D82001F059FE002001F056FEE02001F0AB
:102F900053FE002001F050FEF32001F04DFE002012
:102FA00001F04AFEE22001F053FE052001F044FE4C
:102FB000002001F041FE0B2001F03EFE002001F058
:102FC0003BFE1B2001F038FE002001F035FE3420CE
:102FD00001F032FE002001F02FFE442001F02CFE13
:102FE000002001F029FE4F2001F026FE002001F014
:102FF00023FE612001F020FE002001F01DFE79205B
:1030000001F01AFE002001F017FE882001F014FEE6
:10301000002001F011FE972001F00EFE002001F0CB
:103020000BFEA62001F008FE002001F005FEB720EF
:1030300001F002FE002001F0FFFDC22001F0FCFDC6
:10304000002001F0F9FDC72001F0F6FD002001F09D
:10305000F3FDD12001F0F0FD002001F0EDFDD620C0
:1030600001F0EAFD002001F0E7FDDD2001F0E4FDC4
:10307000002001F0E1FDF32001F0DEFD002001F071
:10308000DBFDE32001F0E4FD052001F0D5FD00E0CB
:103090000AE3002001F0D0FD0A2001F0CDFD002060
:1030A00001F0CAFD1C2001F0C7FD002001F0C4FDA5
:1030B000332001F0C1FD002001F0BEFD442001F0ED
:1030C000BBFD002001F0B8FD502001F0B5FD00204F
:1030D00001F0B2FD622001F0AFFD002001F0ACFD77
:1030E000782001F0A9FD002001F0A6FD882001F064
:1030F000A3FD002001F0A0FD972001F09DFD002020
:1031000001F09AFDA62001F097FD002001F094FD4A
:10311000B72001F091FD002001F08EFDC22001F0EA
:103120008BFD002001F088FDC72001F085FD002007
:1031300001F082FDD12001F07FFD002001F07CFD37
:10314000D52001F079FD002001F076FDDD2001F0B1
:1031500073FD002001F070FDF32001F06DFD0020F3
:1031600001F06AFDE42001F073FD012001F064FD2F
:10317000002001F061FD012001F05EFD002001F062
:103180005BFD022001F058FD002001F055FD2A20D2
:1031900001F052FD002001F04FFD3C2001F04CFDFC
:1031A000002001F049FD4B2001F046FD002001F018
:1031B00043FD5D2001F040FD002001F03DFD742045
:1031C00001F03AFD002001F037FD842001F034FDCC
:1031D000002001F031FD932001F02EFD002001F0D0
:1031E0002BFDA22001F028FD002001F025FDB320D9
:1031F00001F022FD002001F01FFDBE2001F01CFDAA
:10320000002001F019FDC42001F016FD002001F09E
:1032100013FDCD2001F010FD002001F00DFDD320A5
:1032200001F00AFD002001F007FDDD2001F004FDA2
:10323000002001F001FDF32001F0FEFC002001F070
:10324000FBFCE52001F004FD002001F0F5FC00206E
:1032500001F0F2FC002001F0EFFC002001F0ECFC9A
:10326000022001F0E9FC002001F0E6FC292001F039
:10327000E3FC002001F0E0FC3C2001F0DDFC00203C
:1032800001F0DAFC4B2001F0D7FC002001F0D4FC67
:103290005D2001F0D1FC002001F0CEFC742001F093
:1032A000CBFC002001F0C8FC842001F0C5FC00200C
:1032B00001F0C2FC932001F0BFFC002001F0BCFC37
:1032C000A22001F0B9FC002001F0B6FCB32001F00F
:1032D000B3FC002001F0B0FCBE2001F0ADFC0020EA
:1032E00001F0AAFCC42001F0A7FC002001F0A4FC1E
:1032F000CD2001F0A1FC002001F09EFCD32001F0C4
:103300009BFC002001F098FCDC2001F095FC0020E3
:1033100001F092FCF32001F08FFC002001F08CFC06
:10332000E62001F095FC112001F086FC002001F060
:1033300083FC342001F080FC002001F07DFC56204D
:1033400001F07AFC002001F077FC762001F074FC9B
:10335000002001F071FC772001F06EFC002001F0EC
:103360006BFC662001F068FC002001F065FC882001
:1033700001F062FC002001F05FFC992001F05CFC90
:10338000002001F059FCBB2001F056FC002001F0A8
:1033900053FC992001F050FC002001F04DFC662008
:1033A00001F04AFC002001F047FC552001F044FCEC
:1033B000002001F041FC552001F03EFC002001F00E
:1033C0003BFC452001F038FC002001F035FC432097
:1033D00001F032FC002001F02FFC442001F02CFC15
:1033E000002001F029FCE72001F032FC322001F03E
:1033F00023FC002001F020FC552001F01DFC0020E2
:1034000001F01AFC762001F017FC002001F014FCFA
:10341000662001F011FC002001F00EFC672001F095
:103420000BFC002001F008FC672001F005FC0020E7
:1034300001F002FC872001F0FFFB002001F0FCFB03
:10344000992001F0F9FB002001F0F6FBBB2001F010
:10345000F3FB002001F0F0FB992001F0EDFB0020D0
:1034600001F0EAFB772001F0E7FB002001F0E4FB2C
:10347000442001F0E1FB002001F0DEFB562001F0CA
:10348000DBFB002001F0D8FB232001F0D5FB00205E
:1034900001F0D2FB332001F0CFFB002001F0CCFB88
:1034A000452001F0C9FB002001F0C6FBE82001F037
:1034B000CFFB002001F0C0FB002001F0BDFB9920F4
:1034C00001F0BAFB002001F0B7FB872001F0B4FB4C
:1034D000002001F0B1FB882001F0AEFB002001F0DC
:1034E000ABFB772001F0A8FB002001F0A5FB6620D4
:1034F00001F0A2FB002001F09FFB882001F09CFB63
:10350000002001F099FBAA2001F096FB002001F0B9
:1035100093FBBB2001F090FB002001F08DFB992074
:1035200001F08AFB002001F087FB662001F084FB9C
:10353000002001F081FB552001F07EFB002001F00E
:103540007BFB552001F078FB002001F075FB442047
:1035500001F072FB002001F06FFB442001F06CFBD6
:10356000002001F069FB552001F066FB002001F00E
:1035700063FBE92001F06CFBAA2001F05DFB002059
:1035800001F05AFB002001F057FB002001F054FB32
:10359000002001F05DFBAA2001F04EFBCF2001F0DE
:1035A00057FB002001F048FB002001F045FB002004
:1035B00001F042FB002001F03FFB002001F03CFB4A
:1035C000002001F039FB002001F036FB002001F063
:1035D00033FB002001F030FB002001F02DFB002028
:1035E00001F02AFB002001F027FB002001F024FB62
:1035F000002001F021FB002001F01EFB002001F063
:103600001BFB002001F018FBF02001F021FB002043
:1036100001F012FB502001F00FFB002001F00CFB29
:10362000002001F009FB002001F006FBF32001F06F
:103630000FFB002001F000FBF92001F009FB062040
:1036400001F0FAFA102001F0F7FA292001F0F4FA5B
:10365000002001F0F1FA3A2001F0FAFA552001F0C9
:10366000EBFA112001F0F4FA642002F001FA2920AB
:1036700001F0EEFA352001F0EBFA002001F0DCFA5F
:10368000512001F0E5FAFF2001F0D6FA532001F0B5
:10369000DFFA2C2001F0D0FA552001F0D9FA82206F
:1036A00001F0CAFA2C20FDE3A0427DD14FF4704313
:1036B0005521184601F0E2FA4FF20107AA213846D7
:1036C00001F0DCFA5221781C01F0D8FA0821B81C6C
:1036D00001F0D4FA0121F81C01F0D0FA0D214FF4C9
:1036E000304001F0CBFA0D214BF2010001F0C6FA97
:1036F0000D214BF2020001F0C1FA34214FF43640A3
:1037000001F0BCFA34214BF2016001F0B7FA342128
:103710004BF2026001F0B2FA0D214FF4314001F09A
:10372000ADFA0D214BF2011001F0A8FA0D214BF278
:10373000021001F0A3FA34214FF4374001F09EFA51
:1037400034214BF2017001F099FA34214BF20270EE
:1037500001F094FA00214FF4324001F08FFA002179
:103760004BF2012001F08AFA00214BF2022001F015
:1037700085FA24214FF4384001F080FA24214BF6D9
:10378000010001F07BFA24214BF6020001F076FAE9
:1037900001214FF43F4001F071FA0F214FF4334003
:1037A00001F06CFA0F2100E0FEE34BF2013001F072
:1037B00065FA0F214BF2023001F060FA34214FF428
:1037C000394001F05BFA34214BF6011001F056FA52
:1037D00034214BF6021001F051FA08214FF4354024
:1037E00001F04CFA08214BF2015001F047FA082190
:1037F0004BF2025001F042FA03214FF4424001F033
:103800003DFA24214FF43A4001F038FA24214BF6D6
:10381000012001F033FA24214BF6022001F02EFAA8
:1038200000214FF43C4001F029FA78214BF6014089
:1038300001F024FA00214BF6024001F01FFA0021AA
:103840004FF43D4001F01AFA78214BF6015001F097
:1038500015FA00214BF6025001F010FA00214FF446
:103860003E4001F00BFA64214BF6016001F006FACC
:1038700000214FF4514001F001FA33214DF20110C3
:1038800001F0FCF900214DF2021001F0F7F93421AA
:103890004DF2031001F0F2F900214DF2041001F095
:1038A000EDF93A214DF2051001F0E8F900214DF251
:1038B000061001F0E3F94A214DF2071001F0DEF99C
:1038C00000214DF2081001F0D9F95C214DF20910E8
:1038D00001F0D4F900214DF20A1001F0CFF9812155
:1038E0004DF20B1001F0CAF900214DF20C1001F05D
:1038F000C5F9A6214DF20D1001F0C0F900214DF2DD
:103900000E1001F0BBF9E5214DF20F1001F0B6F9F0
:1039100001214DF2101001F0B1F913214DF21110F7
:1039200001F0ACF901214DF2121001F0A7F9542178
:103930004DF2131001F0A2F901214DF2141001F023
:103940009DF982214DF2151001F098F901214DF2F7
:10395000161001F093F9CA214DF2171001F08EF9FB
:1039600002214DF2181001F089F900214DF21910D1
:1039700001F084F902214DF21A1001F07FF90121C2
:103980004DF21B1001F07AF902214DF21C1001F0EA
:1039900075F934214DF21D1001F070F902214DF23C
:1039A0001E1001F06BF967214DF21F1001F066F94E
:1039B00002214DF2201001F061F984214DF2211015
:1039C00001F05CF902214DF2221001F057F9A42117
:1039D0004DF2231001F052F902214DF2241001F0B2
:1039E0004DF9B7214DF2251001F048F902214DF2B1
:1039F000261001F043F9CF214DF2271001F03EF9D6
:103A000002214DF2281001F039F9DE214DF2291082
:103A100001F034F902214DF22A1001F02FF9F221C0
:103A20004DF22B1001F02AF902214DF22C1001F079
:103A300025F9FE214DF22D1001F020F903214DF260
:103A40002E1001F01BF910214DF22F1001F016F984
:103A500003214DF2301001F011F933214DF23110F4
:103A600001F00CF903214DF2321001F007F96D213C
:103A70004DF2331001F002F900214FF4524001F0F1
:103A8000FDF833214DF2012001F0F8F800214DF24C
:103A9000022001F0F3F834214DF2032001F0EEF89A
:103AA00000214DF2042001F0E9F83A214DF2052001
:103AB00001F0E4F800214DF2062001F0DFF84A2180
:103AC0004DF2072001F0DAF800214DF2082001F054
:103AD000D5F85C214DF2092001F0D0F800214DF21B
:103AE0000A2001F0CBF881214DF20B2001F0C6F83D
:103AF00000214DF20C2001F0C1F8A6214DF20D205D
:103B000001F0BCF800214DF20E2001F0B7F8E521DC
:103B10004DF20F2001F0B2F801214DF2102001F01A
:103B2000ADF813214DF2112001F0A8F801214DF25A
:103B3000122001F0A3F854214DF2132001F09EF859
:103B400001214DF2142001F099F882214DF2152047
:103B500001F094F801214DF2162001F08FF8CA21EE
:103B60004DF2172001F08AF802214DF2182001F0E1
:103B700085F800214DF2192001F080F802214DF264
:103B80001A2001F07BF801214DF21B2001F076F89C
:103B900002214DF21C2001F071F834214DF21D205C
:103BA00001F06CF802214DF21E2001F067F8672148
:103BB0004DF21F2001F062F802214DF2202001F0A9
:103BC0005DF884214DF2212001F058F802214DF2D8
:103BD000222001F053F8A4214DF2232001F04EF8E9
:103BE00002214DF2242001F049F8B7214DF22520A1
:103BF00001F044F802214DF2262001F03FF8CF21D8
:103C00004DF2272001F03AF802214DF2282001F070
:103C100035F8DE214DF2292001F030F802214DF275
:103C20002A2001F02BF8F2214DF22B2001F026F88A
:103C300002214DF22C2001F021F8FE214DF22D2021
:103C400001F01CF803214DF22E2001F017F810218D
:103C50004DF22F2001F012F803214DF2302001F037
:103C60000DF833214DF2312001F008F803214DF217
:103C7000322001F003F86D214DF2332000F0FEFFF9
:103C800000214FF4534000F0F9FF33214DF2013091
:103C900000F0F4FF00214DF2023000F0EFFF34217C
:103CA0004DF2033000F0EAFF00214DF2043000F045
:103CB000E5FF3A214DF2053000F0E0FF00214DF222
:103CC000063000F0DBFF4A214DF2073000F0D6FF4E
:103CD00000214DF2083000F0D1FF5C214DF2093097
:103CE00000F0CCFF00214DF20A3000F0C7FF812127
:103CF0004DF20B3000F0C2FF00214DF20C3000F00D
:103D0000BDFFA6214DF20D3000F0B8FF00214DF2AD
:103D10000E3000F0B3FFE5214DF20F3000F0AEFFA2
:103D200001214DF2103000F0A9FF13214DF21130A6
:103D300000F0A4FF01214DF2123000F09FFF54214A
:103D40004DF2133000F09AFF01214DF2143000F0D3
:103D500095FF82214DF2153000F090FF01214DF2C8
:103D6000163000F08BFFCA214DF2173000F086FFAD
:103D700002214DF2183000F081FF00214DF2193080
:103D800000F07CFF02214DF21A3000F077FF012194
:103D90004DF21B3000F072FF02214DF21C3000F09A
:103DA0006DFF34214DF21D3000F068FF02214DF20D
:103DB0001E3000F063FF67214DF21F3000F05EFF00
:103DC00002214DF2203000F059FF84214DF22130C4
:103DD00000F054FF02214DF2223000F04FFFA421E9
:103DE0004DF2233000F04AFF02214DF2243000F062
:103DF00045FFB7214DF2253000F040FF02214DF282
:103E0000263000F03BFFCF214DF2273000F036FF87
:103E100002214DF2283000F031FFDE214DF2293031
:103E200000F02CFF02214DF22A3000F027FFF22192
:103E30004DF22B3000F022FF02214DF22C3000F029
:103E40001DFFFE214DF22D3000F018FF03214DF231
:103E50002E3000F013FF10214DF22F3000F00EFF36
:103E600003214DF2303000F009FF33214DF23130A3
:103E700000F004FF03214DF2323000F0FFFE6D210F
:103E80004DF2333000F0FAFE00214FF4544000F0C0
:103E9000F5FE33214DF2014000F0F0FE00214DF21D
:103EA000024000E07CE300F0E9FE34214DF20340E3
:103EB00000F0E4FE00214DF2044000F0DFFE3A2164
:103EC0004DF2054000F0DAFE00214DF2064000F010
:103ED000D5FE4A214DF2074000F0D0FE00214DF200
:103EE000084000F0CBFE5C214DF2094000F0C6FE18
:103EF00000214DF20A4000F0C1FE81214DF20B403D
:103F000000F0BCFE00214DF20C4000F0B7FEA621EF
:103F10004DF20D4000F0B2FE00214DF20E4000F0D7
:103F2000ADFEE5214DF20F4000F0A8FE01214DF25B
:103F3000104000F0A3FE13214DF2114000F09EFE50
:103F400001214DF2124000F099FE54214DF2134030
:103F500000F094FE01214DF2144000F08FFE82210A
:103F60004DF2154000F08AFE01214DF2164000F09E
:103F700085FECA214DF2174000F080FE02214DF26D
:103F8000184000F07BFE00214DF2194000F076FE53
:103F900002214DF21A4000F071FE01214DF21B404A
:103FA00000F06CFE022100E0FDE24DF21C4000F04A
:103FB00065FE34214DF21D4000F060FE02214DF2FD
:103FC0001E4000F05BFE67214DF21F4000F056FEE0
:103FD00002214DF2204000F051FE84214DF221409B
:103FE00000F04CFE02214DF2224000F047FEA421D9
:103FF0004DF2234000F042FE02214DF2244000F039
:104000003DFEB7214DF2254000F038FE02214DF271
:10401000264000F033FECF214DF2274000F02EFE67
:1040200002214DF2284000F029FEDE214DF2294008
:1040300000F024FE02214DF22A4000F01FFEF22182
:104040004DF22B4000F01AFE02214DF22C4000F000
:1040500015FEFE214DF22D4000F010FE03214DF221
:104060002E4000F00BFE10214DF22F4000F006FE16
:1040700003214DF2304000F001FE33214DF231407A
:1040800000F0FCFD03214DF2324000F0F7FD6D2100
:104090004DF2334000F0F2FD00214FF4554000F0A6
:1040A000EDFD33214DF2015000F0E8FD00214DF20D
:1040B000025000F0E3FD34214DF2035000F0DEFD2C
:1040C00000214DF2045000F0D9FD3A214DF2055087
:1040D00000F0D4FD00214DF2065000F0CFFD4A2142
:1040E0004DF2075000F0CAFD00214DF2085000F0DB
:1040F000C5FD5C214DF2095000F0C0FD00214DF2DC
:104100000A5000F0BBFD81214DF20B5000F0B6FDCE
:1041100000214DF20C5000F0B1FDA6214DF20D50E2
:1041200000F0ACFD00214DF20E5000F0A7FDE5219E
:104130004DF20F5000F0A2FD01214DF2105000F0A1
:104140009DFD13214DF2115000F098FD01214DF21B
:10415000125000F093FD54214DF2135000F08EFDEB
:1041600001214DF2145000F089FD82214DF21550CD
:1041700000F084FD01214DF2165000F07FFDCA21B0
:104180004DF2175000F07AFD02214DF2185000F068
:1041900075FD00214DF2195000F070FD02214DF225
:1041A0001A5000F06BFD01214DF21B5000F066FD2E
:1041B00002214DF21C5000F061FD34214DF21D50E2
:1041C00000F05CFD02214DF21E5000F057FD67210A
:1041D0004DF21F5000F052FD02214DF2205000F030
:1041E0004DFD84214DF2215000F048FD02214DF299
:1041F000225000F043FDA4214DF2235000F03EFD7B
:1042000002214DF2245000F039FDB7214DF2255026
:1042100000F034FD02214DF2265000F02FFDCF2199
:104220004DF2275000F02AFD02214DF2285000F0F7
:1042300025FDDE214DF2295000F020FD02214DF236
:104240002A5000F01BFDF2214DF22B5000F016FD1C
:1042500002214DF22C5000F011FDFE214DF22D50A7
:1042600000F00CFD03214DF22E5000F007FD10214F
:104270004DF22F5000F002FD03214DF2305000F0BE
:10428000FDFC33214DF2315000F0F8FC03214DF2DA
:10429000325000F0F3FC6D214DF2335000F0EEFC93
:1042A00000214FF4564000F0E9FC33214DF201604B
:1042B00000F0E4FC00214DF2026000F0DFFC34214C
:1042C0004DF2036000F0DAFC00214DF2046000F0D2
:1042D000D5FC3A214DF2056000F0D0FC00214DF2F2
:1042E000066000F0CBFC4A214DF2076000F0C6FCEE
:1042F00000214DF2086000F0C1FC5C214DF2096024
:1043000000F0BCFC00214DF20A6000F0B7FC8121F6
:104310004DF20B6000F0B2FC00214DF20C6000F099
:10432000ADFCA6214DF20D6000F0A8FC00214DF27D
:104330000E6000F0A3FCE5214DF20F6000F09EFC42
:1043400001214DF2106000F099FC13214DF2116033
:1043500000F094FC01214DF2126000F08FFC54211A
:104360004DF2136000F08AFC01214DF2146000F060
:1043700085FC82214DF2156000F080FC01214DF298
:10438000166000F07BFCCA214DF2176000F076FC4D
:1043900002214DF2186000F071FC00214DF219600D
:1043A00000F06CFC02214DF21A6000F067FC012164
:1043B0004DF21B6000F062FC02214DF21C6000F027
:1043C0005DFC34214DF21D6000F058FC02214DF2DD
:1043D0001E6000F053FC67214DF21F6000F04EFCA0
:1043E00002214DF2206000F049FC84214DF2216051
:1043F00000F044FC02214DF2226000F03FFCA421B9
:104400004DF2236000F03AFC02214DF2246000F0EE
:1044100035FCB7214DF2256000F030FC02214DF251
:10442000266000F02BFCCF214DF2276000F026FC27
:1044300002214DF2286000F021FCDE214DF22960BE
:1044400000F01CFC02214DF22A6000F017FCF22162
:104450004DF22B6000F012FC02214DF22C6000F0B6
:104460000DFCFE214DF22D6000F008FC03214DF201
:104470002E6000F003FC10214DF22F6000F0FEFBD7
:1044800003214DF2306000F0F9FB33214DF2316031
:1044900000F0F4FB03214DF2326000F0EFFB6D21E0
:1044A0004DF2336000F0EAFB5521184600F0E6FBC0
:1044B000AA21384600F0E2FB5221781C00F0DEFB16
:1044C0000821B81C00F0DAFB0021F81C00F0D6FB34
:1044D000CC214FF4314000F0D1FB00214BF2011010
:1044E00000F0CCFB05214FF4364000F0C7FB7021F3
:1044F0004FF4374000F0C2FB70214BF2017000F026
:10450000BDFB01214FF4384000F0B8FB03214BF60E
:10451000010000F0B3FB03214BF6020000F0AEFBFC
:1045200003214BF6030000F0A9FB02214FF43C40AD
:1045300000F0A4FB00214BF6014000F09FFB00219E
:104540004BF6024000F09AFBD0214FF4494000F0B6
:1045500095FB02214CF6011000F090FB50214CF627
:10456000021000F08BFB50214CF6031000F086FB8C
:1045700050214CF6041000F081FB00214FF4545000
:1045800000F07CFB55214FF4685000F077FB4FF4AE
:10459000885000F05DFB782001F078FA4FF4245049
:1045A00000F056FBB9E04045FCD1E22000F050FBA2
:1045B0001D2000F041FB022000F03EFB042000F033
:1045C0003BFB642001F062FAE02000F041FB012097
:1045D00000F032FB0A2001F04BFAE02000F038FB3B
:1045E000032000F029FB0C2001F042FA012000F02A
:1045F0002FFB0A2001F03CFAE62000F029FB2F20D7
:1046000000F01AFBFF2000F017FBFF2000F014FB66
:10461000B02000F01DFB202000F00EFB002000F079
:104620000BFB032000F008FB40F21F3000F004FBFE
:10463000012000F001FB40F2DF1000F0FDFA002045
:1046400000F0FAFAB42000F003FB042000F0F4FAC2
:1046500040F21F4000F0F0FA002000F0EDFA2E20AA
:1046600000F0EAFA002000F0E7FA002000F0E4FA97
:10467000002000F0E1FA002000F0DEFAB62000F0A1
:10468000E7FA022000F0D8FA4FF4037000F0D4FAF1
:10469000002000F0D1FA172000F0CEFA152000F02B
:1046A000CBFA002000F0C8FA002000F0C5FAF02094
:1046B00000F0CEFA032000F0BFFA292000F0C8FA7B
:1046C000D02000F0C5FA002000F0B6FABE2000F0BD
:1046D000BFFA052000F0B0FAFE2000F0ADFA01208C
:1046E00000F0AAFA002000F0A7FA002000F0A4FAD7
:1046F000002000F0A1FAB82000F0AAFA032000F090
:104700009BFA012000F098FABA2000F0A1FA0120EB
:1047100000F092FA642000F035F8A888584505D0DA
:10472000B04203D0A04201D0404509D104200290FC
:104730000490D9E9010202A9D9F83030FBF70AFF49
:104740000020FDF71FFD0549C1F894A24FF6FF7048
:10475000FDF7F4FC15B0BDE8F08F0000008040428A
:104760000346012000E05843491EC9B2FBD27047FE
:10477000034808B50088ADF80000BDF8000008BD8A
:104780000000086010B50246BE2000F061FA052066
:1047900000F052FA104601F04AFB9FED0C1B53EC5F
:1047A000112B01F057FB01F015FB80B200F044FA29
:1047B000012000F041FAFF2000F03EFA002000F056
:1047C0003BFABDE81040002000F036BA6666666627
:1047D00066660440F0B56C4D00232946AA798988A5
:1047E00041F66314012A01D01AB11BE0A14202D1A3
:1047F00018E0A14216D1082814D2DFE800F0040620
:10480000080A0C0E101206200CE007200AE0042013
:1048100008E0052006E0012004E0002002E003207B
:1048200000E00220A1F5134745F2103245F2105680
:10483000413F05D0914203D0B14201D0A14277D18E
:10484000082812D2DFE800F0110406080A0C0E1046
:1048500080230AE0402308E0C02306E0202304E090
:10486000602302E0A02300E0E023B14202D14FF434
:10487000585000E03620914205D0B14203D0A14209
:1048800001D043F00803194600F0F8F9AA88A242C3
:104890000AD098062888698802D5884202D303E0A6
:1048A000884201D9298068806889B24241D100F0EC
:1048B000CFF9002000F0C0F96889401C80B200F0F8
:1048C000C7F9002000F0B8F96889801C80B200F0B8
:1048D000BFF92888401EC0F30F2000F0ADF96889A9
:1048E000C01C80B200F0B4F92878401EC0B200F0BD
:1048F000A3F9A88900F0ACF9002000F09DF9A8897F
:10490000401C80B200F0A4F9002000F095F9A889BD
:10491000801C80B200F09CF96888401EC0F30F2014
:1049200000F08AF9A889C01C80B200F091F922E059
:1049300028E000F08DF9002000F07EF9002000F062
:104940007BF92888401EC0F30F2000F075F9287805
:10495000401EC0B200F070F9A88900F079F900207B
:1049600000F06AF9002000F067F96888401EC0F383
:104970000F2000F061F9A878BDE8F040401EC0B2F9
:1049800000F05AB9F0BD000094010020F0B53F4D91
:104990000C460246060AA9882846270A4089A1F53E
:1049A0001343413B28D0A1F5A643103B24D0A1F5E9
:1049B000C853633B2FD0A1F5AA43103B64D100F04C
:1049C00047F9304600F038F96889401C80B200F0A1
:1049D0003FF9D0B200F030F9A88900F039F9384633
:1049E00000F02AF9A889401C80B200F031F9E0B249
:1049F000BDE8F04000F020B900F02AF9304600F0A0
:104A00001BF9D0B200F018F9A88900F021F9384656
:104A100000F012F9EBE7A97929B300F019F9304653
:104A200000F00AF9D0B200F007F92888401EC0F360
:104A30000F2000F001F92878401EC0B200F0FCF809
:104A4000A88900F005F9384600F0F6F8E0B200F069
:104A5000F3F86888401EC0F30F2000F0EDF8A87846
:104A6000401EC0B2C4E72988891A491E8AB200F0E4
:104A7000EFF8002000F0E0F8002000F0DDF8100A68
:104A800000F0DAF8D0B2D9E7F0BD000094010020C0
:104A90002DE9F84F82461F460E468B46580700D038
:104AA000012000EBD700790810FB01F0203AC0B2DA
:104AB00002F0FF090025009047E00C2F10D0102FC6
:104AC00012D0182F14D0202F42D1224901EBC91047
:104AD0004FF00008445D200610D51F48026811E021
:104AE00009EB49001D4906E01D4901EB0910EFE7FC
:104AF0001C4909EBC90001EB8000E9E70A9828B9D5
:104B00001548426831465046FDF7B6FB6006040E74
:104B10001548761CB6B24088B04219D9A6EB0B00F6
:104B2000B84209D10AF101001FFA80FA0E485E4628
:104B3000018851450CD906E008F1010000F0FF089A
:104B4000B8F1080FC7D36D1CEDB200988542B4D3FD
:104B5000BDE8F88F2A780008240000206A60000869
:104B6000DE640008CE6A0008940100202DE9FF4FA2
:104B700081B00027DDF838B01D46924680463C469D
:104B8000B9464FEA5B0627E0281B401EC1B20A2047
:104B9000FFF7E6FDBAFBF0F00A21B0FBF1F201FBF2
:104BA000120027B9691E8C4201DA48B10127303062
:104BB000C2B206FB048080B25B46CDF8009006E0EE
:104BC00006FB048080B25B462022CDF8009002995B
:104BD000FFF75EFF641CE4B2AC42D5D305B0BDE87C
:104BE000F08F2DE9F84F044600F0FF0810190D462C
:104BF000DDE90A761FFA80FA58191FFA80F94FF09A
:104C0000000B11E0544502D3E819444685B24D45E6
:104C10000FD23B4629462046CDF800B0FFF738FFBB
:104C200004EB570084B2761C3278A2F120005E2893
:104C3000E8D9BDE8F88F000001B5BDF80000ADF877
:104C40000000BDF800000149088008BD00000860B0
:104C500001B5BDF80000ADF80000BDF80000014945
:104C6000088008BDFEFF07600248034900890880EC
:104C70007047000094010020FEFF0760024A108088
:104C8000901C018070470000FEFF0760104810B5BF
:104C9000016886B041F0020101600068012100F066
:104CA000020005900320CDE90210CDE90001094C76
:104CB00069462046FBF766FD012211462046FBF7B8
:104CC00054FE012202212046FBF74FFE06B010BD24
:104CD000303802400004024008B500900548018BBE
:104CE000C08A491E8BB2401E82B20021084600F0E5
:104CF00045F808BD8002002000B58DB00823099258
:104D00000490009306916846FCF768F8002800D0EC
:104D100001200DB000BD000010B5084B1C465875B1
:104D2000A1888AB2218889B220B1012801D1D98213
:104D30001A8310BDDA82198310BD000080020020A2
:104D4000F0B50C4F94B23D46DFF82CC02B68EA69F1
:104D50002D7D7E7D5CF8255026B103FB010042438A
:104D6000AC52F0BD7E68301A401E03FB0010504369
:104D70002C52F0BD800200202C0000202DE9F843C9
:104D8000274EDDF820900024757D0DB1054606E024
:104D900077680D46B91A1A463B1A491E5B1E3068E1
:104DA00096F814C0DFF87C80521B871A58F82CC084
:104DB000F66900FB015006FB00C51B487F1EBFB211
:104DC000066846F400060660006800F400000090E3
:104DD0001648066826F0010606604FF44036066065
:104DE000022646630764C563591AF30303EB0242C4
:104DF000491C11434164C0F83890016841F0010139
:104E000001605A0102E0641C944202D241688907A1
:104E1000F9D5816841F002018160BDE8F8830000A6
:104E2000800200202C0000203038024000B00240F8
:104E30002DE9FF4700F032F904460126714DA0F537
:104E400086404FF4F07141F21809423846D03204DE
:104E5000A4F5E0434FF44870843B51D003218C27E4
:104E6000A4F5E0434FF4806C4FF4B47A163B57D06E
:104E7000A4F5E0484FF4A063B8F118085ED0A4F59B
:104E80000048B8F117085CD04C450CD1C5E900309A
:104E9000AF810A2028822881E88168826981022105
:104EA0005046FFF729FF58482A68594F0280696821
:104EB00041800220E861554838605248554BA83877
:104EC0004FF00008C0E90038C0F80880C0F80C8036
:104ED0004C453BD14FF08053036139E04FF488706B
:104EE000C5E900102E816E812820A8810820E88164
:104EF000052129828203688204214FF49070D0E753
:104F0000C5E900012E816E812E20A8811720E8813D
:104F1000D22028821620688203214FF4C670C0E791
:104F20004FF41670C5E900C0142028816981AF8153
:104F3000E881A02028820C206882B0E7C5E9003013
:104F4000B1E74FF44070C5E900C0ACE7C0F810808D
:104F50002C89631E43616B89A3F1010CC0F818C052
:104F6000B5F80CC06444A4F1010CC0F81CC0B5F83D
:104F70000EC06344A3F1010CC0F820C0A2F1010CE3
:104F8000A444C0F824C0A1F1010C9C44C0F828C07E
:104F9000B5F810C062442244521EC2626A8A1144AB
:104FA0001944491E016380F8368080F8358080F806
:104FB00034801448A838FBF73FFD07200621CDE9CF
:104FC0000208CDE90081FF2302220020396800F0A9
:104FD00025F8A888002280B200902888114683B264
:104FE000104600F049F80020FFF796FE0A4885F8C1
:104FF0001480C0F8946204B04FF0FF30BDE8F04771
:10500000FFF76ABE8002002094010020000000C06B
:105010002C00002000680140008040422DE9F04350
:105020008DB0164614AA002492E88013114D009406
:1050300002942A6801926D68CDE904634FEA08235F
:10504000CDE9067303954FEA09230DF1240E089369
:105050008EE8260002468DF8324006488DF8314031
:105060008DF830C06946A838FBF7BDFC0DB0BDE82F
:10507000F08300008002002070B51E4604460346FF
:105080000548049DFBF7D0FD23462A463146BDE87E
:1050900070400148FBF7F2BDD801002030B52A4826
:1050A00087B00021026842F040020260026802F00C
:1050B00040020592026842F4807202600068234C4C
:1050C00000F4807005904020CDE90001012002909D
:1050D0000320039069462046FBF754FB84201C4DB7
:1050E000009069462846FBF74DFB40212046FBF720
:1050F00037FC044604212846FBF732FC44EA40040E
:1051000080212846FBF72CFC44EA8000C0B2062828
:1051100017D2DFE800F003070A0D101344F2423003
:1051200007B030BD47F28400FAE747F21600F7E710
:1051300047F21800F4E748F21600F1E741F21800D0
:10514000EEE70020ECE70000303802400018024093
:1051500000200240F0B504688B88E568C5F30B4574
:105160002B441D04882303EBC213E65806F4704653
:10517000E65004680F68E668C6F30B46761C3E44AA
:105180002E43E65003688C89DD68C5F30A052C447C
:1051900025048C2404EBC2141E5906F470461E51DB
:1051A00003688F68DE68C6F30A06761C3E442E4309
:1051B0001E519423046803EBC213E55825F007053C
:1051C000E55005680C69EC5091F8313005681F0214
:1051D00091F832301C040B7E1E069C2303EBC21395
:1051E00055F803C04FF0000C45F803C091F830505B
:1051F00034433D4325430468E5509823046803EB9A
:10520000C213E55825F0FF05E55005684C69EC50E0
:10521000A023046803EBC213E55840F20776B543B8
:10522000E550D1E907452C430568EC50AC230468F0
:1052300003EBC213E55844F803C005684C6AEC5010
:105240000B698BB3012B32D0042B32D0022B30D020
:10525000032B2ED0072B2CD00123B024056804EBA0
:10526000C2142E5906F0E0262E51D1E90065AD1B7F
:105270000E8D5D435E43ED1C45EA064305682B51E8
:10528000B423046803EBC213E5586FF30A05E55035
:105290000468C96AE1500068842101EBC2114258D8
:1052A00042F001024250F0BDFFE70423D5E703239B
:1052B000D3E70223D1E7FEE770470907090E00286C
:1052C00006DA00F00F0000F1E02080F8141D7047AE
:1052D00000F1E02080F80014704770477FB5124C51
:1052E000104800252060B320C4E9010542F2107087
:1052F000C4E903052046FCF70FFC0120CDE900506E
:105300000320CDE90250002269462046FCF776FBD7
:1053100000212046FCF756FC2068C16841F00101DD
:10532000C1607FBD00000140A002002030B50E4CDE
:1053300000202378590616D561686FEA11450A0ED8
:10534000EDB295420AD14AB9C1F30722C943C9B2A5
:10535000914203D1100001D0190604D423F040017A
:1053600021700021617030BD3400002000B5164866
:1053700087B014490022C0E9001201218160082190
:105380001023C0E90313402343614FF4C073C0E905
:1053900006320A0202624A0242628A0282620220E3
:1053A000CDE9000106210291CDE903100590069098
:1053B00069460548FCF778F9034800F007F807B09C
:1053C00000BD0000400100A0A401002010B5002392
:1053D00001221146184600F021F84FF4FA7000F04F
:1053E00055FB002301220221184600F017F8002384
:1053F00008220321184600F011F84FF40C73012223
:105400000421002000F00AF8BDE8104040F2AB2172
:105410000148FCF7D9B90000A40100201FB5002401
:1054200010B1012802D002E0102400E00824CDE9E8
:105430000014CDE902234FF4805269460348FCF77B
:10544000D4F9002800D0012004B010BDA401002030
:105450007047000070B51E4C92B00025266846F0DB
:1054600080562660246804F080541194194C2668F4
:1054700046F44046266024680DF1240C04F44044B0
:105480001194012400940194022406948CE80D00E8
:105490006605CDE907616846FBF778FF00B1FEE7D6
:1054A000FBF758FC00B1FEE70CA90F2081E83100A2
:1054B0004FF4A0500F904FF48050109005210CA88D
:1054C000FBF7E0FD002800D0FEE712B070BD000041
:1054D0004038024000700040FBF752BA10480168A3
:1054E00041F4700101600F48016841F00101016061
:1054F0000C4A00210832116002680B4B1A4002600E
:10550000031D0A4A1A60026822F4802202600548DC
:105510000C3001600249580680390860704700006D
:1055200088ED00E000380240FFFFF6FE1030002456
:105530000148FCF76DBB0000A00200200148FCF709
:1055400067BB0000A0020020F0B50268234D244E86
:10555000244FDFF894C0254B4FF0804EA84209D06D
:10556000704507D0B04205D0B84203D0604501D0A5
:10557000984203D122F070044A682243A8421BD00B
:10558000704519D0B04217D0B84215D0604513D03D
:10559000984211D0164CA0420ED0164CA0420BD00F
:1055A000154CA04208D0154CA04205D0144CA04286
:1055B00002D0144CA04203D122F44074CA682243A2
:1055C00002608A68C2620A688262A84201D0984278
:1055D00001D10969016301214161F0BD0000014071
:1055E0000004004000080040000C0040000401409E
:1055F00000400140004401400048014000180040C4
:10560000001C00400020004010B50123046A8B40BC
:105610009C430462036A8A401343036210BD000086
:1056200070B5046A24F0010404628469056A164EA8
:10563000B04214D0B0F1804F11D0144EB0420ED011
:10564000134EB0420BD0134EB04208D0124EB042AF
:1056500005D0124EB04202D0114EB04203D124F018
:105660000304144303E024F0030242F001041A0788
:1056700024F0F00444EA126225F00A0301F00A0162
:1056800019438261016270BD0000014000040040C6
:1056900000080040000C00400004014000400140B0
:1056A0000018004030B5046A24F0100404628569D3
:1056B000046A25F4407545EA022222F470454FF64B
:1056C000FF7202EA033224F0A0032A43A02404EA72
:1056D000011119438261016230BD10B590F8391093
:1056E000222903D0322901D0022010BD8168B1F5F2
:1056F000805F11D00169002901681FD0496801F05D
:105700007F03816A4A1C82620B70C18D491E0904A5
:10571000090CC18518D02FE00269816A002A02684D
:10572000526805D0D2B20A80816A491C8162ECE7D6
:10573000C2F308020A80816A891CF7E74A68816A15
:105740004B1C83620A70E0E70168CA6822F02002FD
:10575000CA6090F83910322910D00168CA6822F462
:105760008072CA6001684A6922F001024A6101211F
:1057700080F83910FCF79FFC002010BD1221F7E7DC
:105780002DE9F041044600680169E26821F44051C6
:105790000A4302612068C16849F20C62914323699F
:1057A000A268E5691A4363692B431A430A43C2603E
:1057B0002068416921F44072A16911434161E069A7
:1057C00064263225B0F5004F484A494920681DD06B
:1057D000884201D0904269D1FBF788FD00EBC001FF
:1057E00001EB00106168B0468900B0FBF1F1B1FB3C
:1057F000F8F6FBF77BFD00EBC00101EB00106168E0
:105800008900B0FBF1F7FBF771FD68E0884201D039
:10581000904219D1FBF76AFD00EBC00101EB0010CB
:105820006168B0464900B0FBF1F1B1FBF8F6FBF757
:105830005DFD00EBC00101EB001061684900B0FBA9
:10584000F1F7FBF753FD18E0FBF73AFD00EBC00161
:1058500001EB00106168B0464900B0FBF1F1B1FB0B
:10586000F8F6FBF72DFD00EBC00101EB00106168BD
:105870004900B0FBF1F7FBF723FD00EBC00101EBA2
:10588000001061684900B0FBF1F1B1FBF8F06FF076
:105890001801484307EB800005EB0011B1FBF8F05D
:1058A000216866F31F108860BDE8F081FBF708FDF2
:1058B00000EBC00101EB00106168B0468900B0FB4D
:1058C000F1F1B1FBF8F6FBF7FBFC00EBC00101EBDB
:1058D000001061688900B0FBF1F7FBF7F1FC00EB09
:1058E000C00101EB001061688900CCE700140140A1
:1058F0000010014090F83910122903D0322901D04C
:10590000022070478168B1F5805F016A0BD04A1CA4
:105910000262026809785160C18C491E0904090CB1
:10592000C1840ED017E009880268C1F308015160F4
:1059300001690029016A02D0491C0162ECE7891C57
:10594000FBE70168CA6822F08002CA600068C1688B
:1059500041F04001C160002070472DE9F0471D462D
:1059600090460F460446FBF705F806465FEA080036
:105970004FF000094FF0010808D030E0681C05D056
:1059800095B1FAF7F7FF801BA8420DD82068006890
:1059900037EA0000F2D127E0681C20D025B1FAF7E1
:1059A000E9FF801BA8421AD92068C16821F0800154
:1059B000C1602068C16821F02001C1602068C16811
:1059C00021F48071C1602068416921F001014161C9
:1059D00084F8398084F838900320BDE8F087206887
:1059E000006837EA0000D7D00020F6E738B518483D
:1059F00000680068C043800622D44FF47A73012205
:105A000069461348FCF7F2FA124A1088010417D4C9
:105A100041049DF800104FF0000304D50A290ED16F
:105A200040F4004012E00D290ED0C0F30D04084DE3
:105A3000401CC83D80B229551080C72800D913806A
:105A40000348FCF7DFF938BD40F480401080F7E7E9
:105A5000040100201C000020FEE7704710B504463A
:105A60000420FBF741FF0148046010BD180000202E
:105A700070B5054600244FF47A7603E0304600F016
:105A800005F8641CAC42F9D370BD000070B54FF04E
:105A9000E02500216C69094AAB6912685043AA6984
:105AA0009A42FCD002D2A3EB020302E0A4EB02066E
:105AB0003344194413468142F1D370BD18000020CD
:105AC00003490A685206FCD5C2B24A60704700001A
:105AD000001001401CB500252C46FAF759FF082399
