:020000040800F2
:1000000068CB0020B90200085D790008A12F000824
:1000100059790008DD1C000827B200080000000024
:1000200000000000000000000000000081990008AE
:100030004923000800000000557D0008919C00083D
:10004000D3020008D3020008D3020008D30200083C
:10005000D3020008D3020008D3020008D30200082C
:10006000D3020008D3020008D3020008D30200081C
:10007000D3020008D3020008D3020008D30200080C
:10008000D3020008D3020008D3020008D3020008FC
:10009000D3020008D3020008D3020008D3020008EC
:1000A000D3020008D3020008D3020008D3020008DC
:1000B000D3020008D3020008F59C0008D302000810
:1000C000D3020008D3020008D3020008D3020008BC
:1000D000D3020008D9AE0008D302000861AF0008BF
:1000E000D3020008D3020008D3020008D30200089C
:1000F000D3020008D3020008D3020008D30200088C
:10010000D30200082D800008D3020008D3020008A3
:10011000D3020008D3020008D30200082D9D000876
:10012000D3020008D3020008D3020008D30200085B
:1001300000F002F800F0B0F80AA090E8000C824449
:100140008344AAF10107DA4501D100F0A5F8AFF226
:10015000090EBAE80F0013F0010F18BFFB1A43F0A5
:100160000103184754320100743201000A444FF071
:10017000000C10F8013B13F0070408BF10F8014B06
:100180001D1108BF10F8015B641E05D010F8016B4B
:10019000641E01F8016BF9D113F0080F1EBF10F8AF
:1001A000014BAD1C0C1B09D16D1E58BF01F801CBD2
:1001B000FAD505E014F8016B01F8016B6D1EF9D555
:1001C0009142D6D37047000000230024002500266A
:1001D000103A28BF78C1FBD8520728BF30C148BFAA
:1001E0000B6070476E2900F05284702900F0A981DD
:1001F000662911F0D480652911F0D180672911F0AA
:10020000CE806129AFF3008003681B0A28BF41F04C
:100210008001692900F01A81642900F0178175298D
:1002200000F014816F2900F04A85782900F075816B
:10023000E92900F0E584E42900F0E284F52900F0E2
:10024000DF84EF2900F04785F82900F07481036806
:10025000DB0928BF41F08001632900F05484732931
:1002600000F05984E32900F0D587F32900F0DA87FC
:10027000002070471FB501F02FF804000020002176
:1002800010F0E6F8401C60600020002110F0CAF871
:10029000E0601FBD10B510BD00F0F0FF1146FFF784
:1002A000E9FF0EF047F801F0CDF803B4FFF7F2FFD5
:1002B00003BC0BF054F90000094880470948004787
:1002C000FEE7FEE7FEE7FEE7FEE7FEE7FEE7FEE706
:1002D000FEE7FEE704480549054A064B7047000063
:1002E000959C00083101000868C5002068CB0020FB
:1002F00068C7002068C70020704710B54C1084EA1A
:10030000530404D54042C1F1000138BF491E1B42CD
:1003100004D55242C3F1000338BF5B1E00F0CAFA95
:1003200014F0804F04D04042C1F1000138BF491E93
:1003300014F0004F04D05242C3F1000338BF5B1EDB
:1003400010BD00001CB50C46064B7B44694600906E
:10035000204600F0B6FB04460020694600F0C4FBCE
:1003600020461CBD9B0700000FB4044910B503AA2A
:10037000029800F0D5FB10BC5DF814FB18000020BB
:100380000FB41CB5084B06AA7B446946009005983B
:1003900000F097FB04460020694600F0A5FB2046CC
:1003A0001CBC5DF814FB00005D07000070B504463E
:1003B00085690068C10601D5302600E02026C00707
:1003C00007D070BDD4E9012130469047206A401C17
:1003D00020626D1EF6D570BD70B504468569007843
:1003E000C00707D170BDD4E9012120209047206AC1
:1003F000401C20626D1EF6D570BD70B50C460546DA
:10040000012A05D02878800600D5EA69002302E099
:10041000012305E05B1C934202D2E05C0028F9D185
:10042000A869E618C01AA861286A184428622846F4
:10043000FFF7BCFF04E0D5E9012114F8010B904758
:10044000B442F8D32846FFF7C7FF70BD2DE9F0414D
:100450000646002410687529314616A510D000F014
:10046000ABFA002802DA404213A507E031688A0798
:1004700001D512A502E0490704D511A5012401E028
:1004800000F0A3FA00210A2206F1240709E0B0FBDC
:10049000F2FCB0FBF2F302FB1C003030785418463B
:1004A000491C0028F3D123462A463046BDE8F041D6
:1004B00000F094BA000000002D0000002B000000A6
:1004C00020000000F0B40D460188090502D5214C3A
:1004D0007C4402E01F4C7C440E34002100F12406D1
:1004E00008E002F00F071209E75D42EA03721B09F8
:1004F0007754491C52EA0307F3D10278002312070C
:1005000004D5702D06D009B1022311342246F0BC67
:1005100000F064BA01231034F8E770B504460D46C4
:100520002146106800F051FA024629462046BDE8EF
:1005300070400023C6E7D21D22F00703D3E9002351
:10054000C0E70368126843F0200303600823C36117
:100550000023B7E78C2B01002DE9F05F89460446A4
:100560004FF0000ADFF874B1FB44C0F820A0204629
:10057000E1688847002874D0252806D0D4E90121F5
:100580009047206A401C2062F1E700265F46204623
:10059000E16888472028054607DB312D05D2781908
:1005A00010F8200C08B10643F1E7B00701D526F09A
:1005B0000406C4F81CA00027C4F818A02A2D09D0EE
:1005C00028460AF0C5FF38B304EB8708303DC8F869
:1005D000185019E059F8041B204604EB870291617A
:1005E000E1688847012F054618D1E069002820DA24
:1005F00026F020061DE0D8F8180000EB800005EB7F
:1006000040003038C8F818002046E16888470546A1
:100610000AF09EFF0028EED1012F0AD02E2D08D11E
:100620002046E16888477F1C0546022F46F02006D9
:10063000C4DBA069002803DA404246F00106A0614D
:10064000F00701D026F010066C2D0BD0682D09D0D4
:100650004C2D39D06A2D35D0742D35D07A2D33D02C
:1006600016E038E0E1682F4620468847B842054644
:1006700009D16C2F26D04FF48060E16806432046F4
:100680008847054604E06C2F1AD04FF4807006436B
:100690000DB3A5F14100192802D8203546F40066B3
:1006A0004A462946204626604E46FFF79BFD80B10C
:1006B00001280BD0F61D26F0070000F1080956E7C7
:1006C0004020E4E78020D8E70020D6E706F10409BF
:1006D0004DE7284652E7206ABDE8F09F1C2B010039
:1006E00030B505460B462A4613F8014B12F8010BAC
:1006F00008B1A042F8D01CB1002802D06D1CF1E76F
:10070000284630BD40EA0103024630B59B0710D1B0
:100710004FF0013400E008C208C91D1B9D4315EAD3
:10072000C41FF8D013F0FF0102F8011B0DD01B0A03
:10073000F8E711F8013B002B02F8013B05D011F856
:10074000013B002B02F8013BF3D130BD10B5431C37
:1007500002E010F8011B71B18107FAD14FF00132AC
:1007600002C88C1A8C4314EAC211F9D0C01A0A06C6
:1007700003D0C01E10BDC01A10BD0A0401D0801ED7
:1007800010BD0902FCD0401E10BD421E12F8013FF0
:10079000002BFBD111F8013B002B02F8013BF9D1F2
:1007A0007047032A40F2308010F0030C00F01580EF
:1007B00011F8013BBCF1020F624498BF11F801CB64
:1007C00000F8013B38BF11F8013BA2F1040298BFC9
:1007D00000F801CB38BF00F8013B11F0030300F033
:1007E0008582083AC0F0088051F8043B083A51F875
:1007F00004CBA0E80810F5E7121D5CBF51F8043BDC
:1008000040F8043BAFF30080D20724BF11F8013B4E
:1008100011F801CB48BF11F8012B24BF00F8013BB0
:1008200000F801CB48BF00F8012B70474FF0013CA6
:1008300050F8042B51F8043B9A4221D1A2EB0C034F
:10084000934313EACC1317D150F8042B51F8043B0F
:100850009A4215D1A2EB0C03934313EACC130BD1AC
:1008600050F8042B51F8043B9A4209D1A2EB0C0337
:10087000934313EACC13DBD04FF00000704700BF66
:10088000D01A01BAB1FA81F101F0180122FA01F08F
:10089000CB40C1F12001DBB2C0B2C01A2CFA01F387
:1008A000D11A914311EAC311E6D1704770477047DE
:1008B0007047704753EA020C00F069802DE9F04B55
:1008C0004FF00006002B1FBFB3FA83F503FA05F4BF
:1008D00024FA05F65E4012BF1643B2FA82F502FA18
:1008E00005F4C5F120051EBF22FA05FC44EA0C04FC
:1008F000203556EA044C4FEA144418BF641C4FF0EC
:1009000000084FF00009904271EB030C39D3002925
:1009100019BFB1FA81F701FA07F6B0FA80F700FAC9
:1009200007F6C7F120071EBF20FA07FC46EA0C06AF
:100930002037B6FBF4FCA7EB0507103F07F01F0BB1
:10094000CBF120060CFA0BFB2CFA06F644BFB3469B
:100950000026202FA4BF5E464FF0000B5BEA060C7A
:1009600008BF4FF0010B19EB0B09ABFB027C48EB06
:100970000608C01B06FB02CC0BFB03CC71EB0C0181
:10098000C1E70B46024641464846BDE8F08B13B529
:100990004FF000004FF00001AFF30080BDE81C40B5
:1009A000704710B500F0D4F9006810BD10B50446CA
:1009B00000F0CEF9046010BD09684A0501D540B2C7
:1009C0007047C905FCD500B2704709684A0501D5D2
:1009D000C0B27047C905FCD580B270472DE9F04719
:1009E0000D4699469246044600F12408016888069F
:1009F00004D5E06921F01001216000E00120A84247
:100A000001DD471B00E00027A1697A1902EB09000C
:100A1000081AA0612078C00602D42046FFF7C6FC61
:100A2000002608E0D4E901211AF806009047206A60
:100A3000401C761C20624E45F4DB2078C0060AD5A7
:100A40002046FFF7B3FC06E0D4E9012130209047AF
:100A5000206A401C2062381EA7F10107F4DC07E081
:100A6000D4E9012118F805009047206A401C206253
:100A7000281EA5F10105F3DC2046FFF7ADFC207828
:100A8000000602D50220BDE8F0870120FBE71168CF
:100A90000268006A530501D508700AE0D30501D544
:100AA000088006E0130603D5C217C1E9000200E082
:100AB000086001207047000001694A1C0261087843
:100AC000704700B58FB0CDE901310021059105498E
:100AD0007944CDE9031011466846FFF73DFD0FB09C
:100AE00000BD0000E5FFFFFF0A6802F8010B0A6085
:100AF000704710B5436913B1AFF3008001E0FFF711
:100B00007CFC012010BD127800F124010A70002243
:100B10004A700122EDE711684FF0FF32E9E700006B
:100B2000074B70B50D467B44FFF7CBFF04462846C4
:100B300000F07CFB10B14FF0FF3070BD204670BD5F
:100B400033D500002DE9FF5F15468A460446DFF8DD
:100B5000AC80F8440027D8E900103E46CDE90010EB
:100B600010E03AF816106A4602A800F063FB411C38
:100B700007D02178890603D5E269391891420DD84A
:100B80000744761C2078800602D5E069B84205DD6E
:100B9000AE42E6DB3AF816000028E2D1A069C01B9D
:100BA000A0612046FFF702FCD8E90010CDE9001053
:100BB000002017E03AF818106A4602A800F03AFB45
:100BC000B0F1FF3F81460BD000250DF1080B05E089
:100BD000D4E901211BF8050090476D1C4D45F7D362
:100BE00008F10100B0428046E4DB206A384420620C
:100BF0002046FFF7F1FBBDE8FF9F000046250100FE
:100C00002DE9F0418046D21D22F007020025D2E9ED
:100C10000002F52915A614D0011E72F1000106DAB2
:100C20000023D0EB030063EB020211A608E0D8F822
:100C300000108B0701D50FA602E0490701D50EA6CB
:100C400001251146002408F1240704E000F084F88F
:100C500030323A55641C50EA0102F7D12B46324635
:100C600021464046BDE8F041FFF7B8BE0000000055
:100C70002D0000002B0000002000000030B40021F7
:100C800000F1240408E002F00705D208303542EAFA
:100C90004372DB086554491C52EA0305F3D104682A
:100CA000002310A2250707D5A40600D421B1C469EA
:100CB00001230DA2641EC46130BCFFF78FBE10B5C6
:100CC000044621461068FFF780FE02462046BDE834
:100CD00010400023D2E7D21D22F00701D1E9002302
:100CE000CCE70000000000003000000010B5203A02
:100CF000C0F00B80B1E81850203AA0E81850B1E8D5
:100D00001850A0E81850BFF4F5AF5FEA027C24BF8A
:100D1000B1E81850A0E8185044BF18C918C0BDE881
:100D200010405FEA827C24BF51F8043B40F8043B4A
:100D300008BF7047D20728BF31F8023B48BF11F8FF
:100D4000012B28BF20F8023B48BF00F8012B704759
:100D50000048704704C5002030B5B0F10A024FEAE0
:100D6000900E71F100034EEA817EB0EB0E0061EB54
:100D700091014FEA101E4EEA017E10EB0E0041EB8E
:100D800011114FEA102E4EEA016E10EB0E0041EBEE
:100D900011214FEA104E4EEA014E10EB0E0041EBCE
:100DA0001141401841F100014FEAD00040EA417082
:100DB0004FEAD10110EB80054FEA810444EA9074B8
:100DC00044EB01046D1944EB0404521BA3414FF0A2
:100DD000000348BF0A3200D530BD401C41F100017C
:100DE00030BD70472DE9FF4F0C461E464FF0FF37D0
:100DF0008BB0D2E90001DDF860800A908A46C1F329
:100E00000A5505B93D46002108464FF00000BAF1E9
:100E1000000F00F4400005DA00EB80004FF44001C1
:100E200001EA50004FEA9059B9F1010F00DDB946CF
:100E30000A9850EA4A000ED044F61050A5F2FF3549
:100E400045432F14B8F1000F1ED07542291E1EDD38
:100E5000C9F100021CE0B8F1010F4FF0000001D011
:100E6000302103E0F24305E02154401CB042FBDB9B
:100E700030460022002121540B99C1F80880C1E9B5
:100E800000200FB0BDE8F08FBD1B6D1CDEE74A46A9
:100E900000DA694206A800F063FA06AB93E807009F
:100EA00003AB83E8070050460A9900F0D4FA8DE8B6
:100EB0000700A0F500501F3800900398002D0ADDB0
:100EC00042F21F014A460844002303A903906846E2
:100ED00000F03DFD09E0A0F500504A461F38002310
:100EE00003A90390684600F047FD8DE80700000461
:100EF000000C03D04FF0FF30410800E01046B8F17D
:100F0000000F03D00022009215461EE0751E05D486
:100F1000FFF722FF303262556D1EF9D5B34601222C
:100F2000084302D000227F1C04E02078302801D141
:100F300000227F1E002A099784D01DE0112D07DAB8
:100F4000FFF70AFF303262556D1C50EA0102F5D1FD
:100F5000084302D00098C8B10EE00021681E05E0E9
:100F6000235C625C63542254401E491C8142F7DBBF
:100F7000AB46A81B401E0990002004F80B000B98FC
:100F8000099AC0F80880C0E9002B7AE711264FF0D3
:100F9000000857E72DE9F04F88460446D21D22F09D
:100FA000070191B0D1E90001CDE90A010AF0BCFACC
:100FB00002460B98C00F01D02D2007E02068810762
:100FC00001D52B2002E0202101EAC000032A09906C
:100FD00001D0072A05DB03464146204600F080F990
:100FE0000BE12078800601D5E06900E00620B8F129
:100FF000650F814606D0B8F1660F18D0B8F1670FBB
:1010000070D131E00020B9F1110F009001DB112304
:1010100001E009F101030AAA01A90CA8FFF7E2FE09
:10102000DDE90C70002609F10105834647E0012047
:101030004B4600904FF000470AAA01A90CA8FFF701
:10104000D1FEDDE90DB00C995D46002610B909F11D
:1010500001000D18B9EB050003D4C0F1FF3609F10A
:101060000105A5EB09002BE0B9F1010F01DA4FF002
:1010700001090020B9F1110F0090484601DD11234C
:1010800000E003460AAA01A90CA8FFF7ABFEDDE9C0
:101090000C704D4600268346207800070AD4AB45E5
:1010A00000DA5D4601A8012D04DD411911F8011C8B
:1010B000302907D04F4502DA17F1040F04DA012076
:1010C00082460FE06D1EEEE7002F02DCED1B3E4472
:1010D00003E0781CA84200DD7D1CB81B00F1010A6A
:1010E0004FF000472078000703D4AA4501DB4FF0FA
:1010F000FF3A0021B7F1004F0DF143088DF843107E
:1011000024D002202B23002F01DA7F422D230A2135
:10111000021EA0F1010000DC5FB197FBF1FC97FB20
:10112000F1F201FB1C7C17460CF1300C08F801CDE4
:10113000EEE7A8F1010003702188090501D54521DA
:1011400000E06521A0F1010800F8011C09980FA931
:10115000A1EB0807FF1D00B10120411901EBEA7066
:10116000A1693844081A401EA0612078C00602D444
:101170002046FFF71BF9099828B1D4E901219047CF
:10118000206A401C20622078C00622D52046FFF746
:101190000DF91EE0002E04DBB34502DD01A8805DE1
:1011A00000E03020D4E901219047206A401C2062F1
:1011B000761CAAF101005FEA000A0AD100F08CF85F
:1011C000C0680168405CD4E901219047206A401C56
:1011D0002062281EA5F10105DCDC07E0D4E901212D
:1011E00018F8010B9047206A401C2062381EA7F1B6
:1011F0000107F3DC2046FFF7EFF8032011B041E6CA
:1012000010B5436913B1AFF3008001E0FFF79AFC1A
:10121000012010BD128800F1240182840022C284C2
:101220000122EDE711684FF0FF32E9E7007B00F0A3
:101230008000704770B516460C46054600F044F82D
:10124000036893F80101012806D0FF2C0FD8185D20
:1012500068B101202C7070BDD3F8070132462146D9
:1012600003F2071303442846BDE8704018474FF0C7
:10127000FF3070BD0048704704C500207546FFF779
:10128000F9FFAE4605006946534620F00700854643
:1012900018B020B5FFF71EF8BDE820404FF000065B
:1012A0004FF000074FF000084FF0000B21F007014E
:1012B000AC46ACE8C009ACE8C009ACE8C009ACE891
:1012C000C0098D467047000010B500F005F8001DFC
:1012D00010BD00BF7DF100000048704724C500200C
:1012E0002DE9F0411F46044603260168072A01F450
:1012F000006004DB08B116A505E016A503E008B1FF
:1013000015A500E015A521F010002060A069C01E01
:10131000A0610FB1401EA0612046FFF747F84FB112
:10132000D4E9012138469047206A401C2062C01C45
:10133000206206E0206AFAE7D4E9012115F8010BE2
:101340009047761EF8D22046FFF746F8BDE8F081B8
:101350004E414E006E616E00494E4600696E660059
:101360002DE9F047814616468AB0354878440DC8C5
:101370008DE80D0032487844801C03AC0DC884E829
:101380000D0041F69B300844372190FBF1F290FBB1
:10139000F1F5A5F1800501FB12041B3C02D5644266
:1013A000012000E00020DFF898A080460027FA44E2
:1013B000AAF1BE0A0EE0E0070AD03246684607EB03
:1013C000470101230AEB810100F0D6FA8DE80700FE
:1013D00064107F1C002CEED1194F7F44AE3F19E002
:1013E000E80715D007EB04100DF1180A90E80E007D
:1013F0008AE80E00C068F04201D198190890324680
:10140000012306A903A800F0B7FA03AB83E807009D
:101410006D10641C002DE3D14FF001033246694684
:10142000B8F1000F03A802D000F091FA01E000F03B
:10143000A3FAC9E90001C9F808200AB0BDE8F0879D
:10144000B01D010010B50446AFF300802046BDE892
:101450001040FEF72ABF5FEA400C08BF91F0000F72
:101460004FEA8C234FEAC12243EA51514FEA1C5004
:1014700018BF00F5F0404FEA300018BF41F00041BE
:101480005FEA6C5C00F02980BCF1FF3F08BF40F0D0
:1014900080407047130C06BF12044FF0100C4FF041
:1014A000000C130E04BF12020CF1080C130F04BF42
:1014B00012010CF1040C930F04BF92000CF1020C0A
:1014C000D30F04BF52000CF1010C11464FF0000283
:1014D000A0F11F00A0EB0C00704711F0004F08BFF7
:1014E000704731F000413FF4D5AF0B0C06BF090443
:1014F0004FF0100C4FF0000C0B0E04BF09020CF162
:10150000080C0B0F04BF09010CF1040C8B0F04BF76
:1015100089000CF1020CCB0F04BF49000CF1010C47
:10152000CCF12003A0EB0C0022FA03F302FA0CF238
:1015300041EA030100F10100704720F07F4C80EA8E
:10154000030023F07F47ACEB070303F57C5300F067
:10155000004003F1FF032DE980494FEA154B09B420
:101560004FEA144325EA0B4E24EA03480FF20426FF
:1015700006EB132749083E785FEA320203FB066751
:10158000C7F5000707FB06F64FEA54374FEAD64681
:1015900006F1020607FB066CCCF1005C4FEA1C4723
:1015A0002CEA074C07FB06F40CFB06F504EB15468A
:1015B0004FEA961634BF00204FF000404FEAD13773
:1015C00006FB07FC4FEA1C4C0CFB0BF7D21B03FB82
:1015D0000CF761EB07010CFB0EF7B0EB074072EB69
:1015E00017420CFB08F734BFA2EB0742B2EB0742ED
:1015F00061EB17414FEA0C444FEA910706FB07FCE9
:101600004FEA1C4C0CFB0BF7B0EBC74072EB5732A8
:1016100003FB0CF734BFA2EBC742B2EBC74261EB4E
:1016200057310CFB0EF7B0EBC70072EB57720CFB97
:1016300008F734BFA2EBC702B2EBC70261EB5771E8
:10164000039F4FEA816141EA921104EBCC044FEA17
:10165000D1374FEA826206FB07FC42EA90124FEA5A
:1016600080604FEA1C4C0CFB0BF7D21B03FB0CF702
:1016700061EB07010CFB0EF7B0EB074072EB174272
:101680000CFB08F734BFA2EB0742B2EB074261EB59
:1016900017414FEA8C554FEA910704EB9C2406FB57
:1016A00007FC4FEA1C4C0CFB0BF7B0EBC74072EB8E
:1016B000573203FB0CF734BFA2EBC742B2EBC74271
:1016C00061EB57310CFB0EF7B0EBC70072EB5772B2
:1016D0000CFB08F734BFA2EBC702B2EBC70261EB09
:1016E000577115EB4C254FEA816141EA92114FEA9F
:1016F00082624FEAD13742EA901206FB07FC44F1BE
:1017000000044FEA80604FEA1C4C0CFB0BF7D21B25
:1017100003FB0CF761EB07010CFB0EF7B0EB074086
:1017200072EB17420CFB08F734BFA2EB0742B2EB97
:10173000074261EB174115EB1C154FEA813141EA75
:1017400092414FEA823242EA90424FEA80304FEAB9
:101750000C7644F1000448EA03434EEA0B484FF08C
:10176000000EB2EB080C71EB030724BF624639464A
:101770004EEB0E0E4FF0000B0018524149414BEB5F
:101780000B0BB2EB080C71EB03077BF1000B24BFD2
:10179000624639464EEB0E0E4FF0000B00185241D8
:1017A00049414BEB0B0BB2EB080C71EB03077BF1E0
:1017B000000B24BF624639464EEB0E0E51EA02077B
:1017C00018BF46F0010616EB0E7655F1000254F1F3
:1017D000000103D5BDE88901BDE80088BDE88901A5
:1017E000BDE80048B619524141EB0101A3F10103E4
:1017F000704780807F7E7D7C7B7A7978777676757E
:101800007473727171706F6E6E6D6C6C6B6A6A69F5
:101810006868676666656464636362616160605F8F
:101820005F5E5E5D5D5C5C5B5B5A5A595958585708
:101830005756565555555454535352525251515070
:1018400050504F4F4F4E4E4D4D4D4C4C4C4B4B4BC3
:101850004A4A4A4949494848484747474746464609
:101860004545454444444443434343424242424144
:101870004141002B9C4630D477002BD01CB54FEA59
:10188000370703B44FF010004FF01001BAF1000F0A
:1018900006D0BCF1000FDCBF40F0080040F00801AA
:1018A0004FF000000FBCBDE810400BF1010BBBF185
:1018B000010F08BF5FEA170722BF12F1010211F101
:1018C00001014FF0004143F1000300F0004043EA02
:1018D00000007047F9D35708D0E746EA064613F1EF
:1018E000400F4FEA16461FDD13F1200FDFBF1643EE
:1018F0000A46002120335B42BED0C3F1200746EAEE
:10190000064602FA07F74FEA164646EA0706C3F10B
:10191000200722FA03F201FA07F721FA03F14FF048
:10192000000342EA0702A7E746EA020646EA06463D
:101930004FEA164646EA0106BCBF46EA0646360CA2
:101940004FF000034FF000024FF0000194E72DE943
:10195000804C9A46934670B491E8380007C831EA43
:10196000400C48BF34EA430C03D5FFF7E6FDFFF710
:1019700080FFF0BCBDE8008C2DE9804C9A46934670
:1019800070B491E8380007C810F0804F08BF13F01A
:10199000804F03D100F005F8FFF76BFFF0BCBDE806
:1019A000008C20F07F4780EA030023F07F4C07EB98
:1019B0000C03A3F57C5300F00040A3F1FE0392F06A
:1019C000000F00F0B38095F0000F00F077802DE954
:1019D00001494FEA11404FEA144621EA004800FB52
:1019E00006FC24EA064708FB06F607FB08F800FB9E
:1019F00007F718EB06484CEB164C4FEA124B18EB66
:101A000007484FEA15464CEB174022EA0B4E0BFBFA
:101A100006FC25EA06470EFB06F607FB0EFE0BFB4F
:101A200007F71EEB064E4CEB164C4FF000061EEB74
:101A3000074E4CEB174B18EB0B0840F1000018EB6E
:101A40000E0B58EB000840F100008F1A4FF0000118
:101A50003CBFC943661B14BFB5EB040C00213CBF5F
:101A6000C943F61B4FEA17444EEA8E0E27EA044597
:101A70004FEA1C4704FB07622CEA074C05FB07F7FB
:101A80000CFB05F604FB0CFC16EB074642EB174279
:101A900016EB0C4642EB1C421BEB060658EB02020F
:101AA000414146EA9E0601D5BDE80189B619524179
:101AB00041EB0101A3F10103BDE801894FEA14459F
:101AC0004FEA114724EA054621EA074C05FB07F4D3
:101AD00006FB07F70CFB06F105FB0CFC11EB0741BD
:101AE00044EB17444FEA124711EB0C4144EB1C4402
:101AF00022EA074C05FB07F206FB07F70CFB06F68C
:101B000005FB0CFC16EB074642EB174216EB0C46A6
:101B100042EB1C456A1854F1000148BF7047B619E2
:101B2000524141EB0101A3F10103704795F0000F11
:101B300037D04FEA11424FEA144721EA024624EA1D
:101B4000074C02FB07F106FB07F70CFB06F402FB50
:101B50000CFC14EB074441EB17414FEA154714EB1B
:101B60000C4441EB1C4125EA074C02FB07F506FB40
:101B700007F70CFB06F602FB0CFC16EB074645EBE1
:101B8000174516EB0C4645EB1C42121951F10001AA
:101B900048BF7047B619524141EB0101A3F101035F
:101BA00070474FEA14454FEA114724EA054621EAF7
:101BB000074C05FB07F106FB07F70CFB06F24FF09D
:101BC000000605FB0CFC12EB074241EB174112EB40
:101BD0000C4251EB1C4148BF7047921841EB010188
:101BE000A3F10103704710B501F004FA10BD70B500
:101BF00006460C46154608E03046721C96B200F0C8
:101C000007F804F8010B681E85B2002DF4D170BDF1
:101C100070B50446002601F0A1FA2546E11704EB51
:101C200011610912A02202EB4101C8B201F05CFA75
:101C300001F0E0FAE11704EB11610912A4EB0121B4
:101C4000C8B201F051FA01F0D5FA01F087FAA120EB
:101C500001F04AFA01F0CEFA002001F00DFA064632
:101C600001F0A2FA304670BD70B505460C46164626
:101C700006E02178284600F009F8681C85B2641C4B
:101C8000301EA6F101018EB2F3D170BD70B50446CD
:101C90000E4601F063FA2546E11704EB11610912C3
:101CA000A02202EB4101C8B201F01EFA01F0A2FA33
:101CB000E11704EB11610912A4EB0121C8B201F094
:101CC00013FA01F097FA304601F00EFA01F092FA99
:101CD00001F06AFA0A200BF019F970BD00BFFEE7A7
:101CE00010B505200BF038F910BD000010B500202C
:101CF0000F4908600F48006820F0F0000D490860A7
:101D00000846006840F030000860FFF7E9FF002057
:101D10000949C1F8A401FFF7E3FF01200449086065
:101D2000FFF7DEFF00200549C1F8840110BD000067
:101D300084812142041C0140008023420080214212
:101D400008B50121882006F037F80220ADF8000020
:101D500010208DF8030003208DF8020069460A4820
:101D600000F0E8FD0221084800F07AFE4FF4007010
:101D7000ADF800006946054800F0DCFD4FF4007145
:101D8000024800F06DFE08BD000C0140001C01403F
:101D900010B500200F4908600F48006820F0F000DF
:101DA0000D4908600846006840F030000860FFF701
:101DB00097FF01200949C1F8A401FFF791FF012015
:101DC00004490860FFF78CFF00200549C1F8840131
:101DD00010BD000084812142041C01400080234288
:101DE0000080214270B5054600241648006820F0A6
:101DF000F000144908600846006840F08000086060
:101E00001E200BF0A9F8002611E000200E49086002
:101E1000FFF766FF01200D49C1F884016006040E3A
:101E20000B48006808B1601CC4B2701CC6B2082E12
:101E3000EBDB15B9FFF7ACFF01E0FFF757FF2046DA
:101E400070BD0000041C01408481214200802142B9
:101E50002481234270B504461348006820F0F00046
:101E6000114908600846006840F030000860002012
:101E70000E490860FFF734FF002511E0E0090C4926
:101E800008606006040E01200A49C1F88401FFF7CA
:101E900027FF002005490860FFF722FF681CC5B234
:101EA000082DEBDB70BD0000041C01408481214241
:101EB000A48123420080214210B50F48006820F021
:101EC000F0000D4908600846006840F030000860E6
:101ED00001200A4908600A49C1F884011E200BF05C
:101EE0003BF8002005490860FFF7FAFE002004498E
:101EF000C1F8840110BD0000041C0140A4812342EC
:101F00000080214210B50D48006820F0F0000B4918
:101F100008600846006840F0300008600120084969
:101F200008601E200BF018F800200649C1F8A40133
:101F3000FFF7D6FE01200449086010BD041C0140D3
:101F40008481214200802342A481234210B50024D1
:101F50001348006820F0F000114908600846006846
:101F600040F08000086001200E4908600E49C1F869
:101F70008401FFF7B5FE09E0601CC4B2FA2C03DD52
:101F8000FFF7C0FF012010BDFFF7AAFE054880380B
:101F900000680028F0D10549086000BFF3E70000A1
:101FA000041C0140A48123420080214284812142FB
:101FB00070B500254FF4803404E0802006F022F84C
:101FC00000B103E0201EA4F10104F6D100BF0CB95A
:101FD000032070BD40F2FF5005F0CEFF2846F8E721
:101FE00070B5044605E01548456B05F0450000B1A5
:101FF00000E0F8E700BF042006F004F820B1042058
:1020000005F0BAFF032070BD012005F0FBFF20B1F1
:10201000012005F0B1FF0120F5E708480069A04262
:1020200001D01020EFE740F2FF50044988630846D2
:10203000406908210840C0B2E5E700000080014087
:1020400070B500264FF4803505E01148446B04F06C
:10205000450000B103E0281EA5F10105F5D100BF40
:1020600015B104F0040028B10326042005F084FF14
:10207000304670BD012005F0C5FF18B101260120D2
:1020800005F07AFF40F2FF5005F076FF3046F0E7AA
:102090000080014010B505E00B48446B04F045009A
:1020A00000B100E0F8E700BF042005F0ABFF20B16D
:1020B000042005F061FF032010BD40F2FF5005F041
:1020C0005BFF0020F8E70000008001402DE9F041AF
:1020D00005460E464FF0000805E01F48476B07F025
:1020E000450000B100E0F8E700BF042005F08AFFDA
:1020F00028B1042005F040FF0320BDE8F081012055
:1021000005F080FF20B1012005F036FF0120F4E743
:1021100011480069A84201D01020EEE740F2FF50BC
:1021200005F02AFF0C48446904F4604018B9200CFB
:1021300030804046E1E704F4005008B11320DCE7AA
:1021400004F4804008B11020D7E704F4004008B13F
:102150000F20D2E74046D0E70080014070B500264E
:102160004FF4803505E00F48446B04F0450000B1A2
:1021700003E0281EA5F10105F5D100BF15B104F05B
:10218000040028B10326042005F0F6FE304670BD99
:1021900004F0400018B10026402005F0EDFE304666
:1021A000F5E700000080014021B1026842F0010221
:1021B000026004E002684FF6FE731A400260704746
:1021C00001684FF6FE72114001600021016041601C
:1021D0008160C1604B49884208D14A490839496841
:1021E00041F00F01474A083A51608AE045491431ED
:1021F000884208D143490839496841F0F001414A11
:10220000083A51607DE03F492831884208D13D4974
:102210000839496841F470613A4A083A516070E0FF
:1022200038493C31884208D136490839496841F477
:102230007041344A083A516063E032495031884273
:1022400008D130490839496841F470212D4A083ACB
:10225000516056E02B496431884208D12949083938
:10226000496841F47001274A083A516049E025491C
:102270007831884208D123490839496841F07061B2
:10228000204A083A51603CE01F49884206D1011FAC
:10229000096841F00F01021F116032E01A49143140
:1022A000884208D11849091F096841F0F001164A0F
:1022B000121F116025E014492831884208D11249C3
:1022C000091F096841F470610F4A121F116018E07C
:1022D0000D493C31884208D10B49091F096841F476
:1022E0007041094A121F11600BE0074950318842C2
:1022F00007D10549091F096841F47021024A121FDC
:1023000011607047080002400804024010B5002226
:10231000026847F6F0739A430C6A8B6823430C6992
:1023200023434C6923438C692343CC6923434C6A80
:1023300023438C6A23431A430260CB6843600B68D3
:1023400083604B68C36010BD7047000051B18200CC
:10235000A2F1C042126842F001038200A2F1C04221
:10236000136009E08200A2F1C0421268034B1A40D8
:102370008300A3F1C0431A6070470000FEFF0F0006
:10238000D0E901121143C268114302691143426945
:10239000114382691143C2691143026A1143426ABF
:1023A0001143826A1143C26A1143026B11430268EE
:1023B0009200A2F1C0421160816808290BD1016826
:1023C0008900A1F1C041096841F04002016889001B
:1023D000A1F1C0410A60416B0968426B526841EA51
:1023E0000211426B926841EA0221426B928941EAF2
:1023F0000241426B128A41EA0251426B127D41EA6C
:102400000261426B926911430268521C9200A2F170
:10241000C0421160C16AB1F5804F1BD1816B096860
:10242000826B526841EA0211826B926841EA022192
:10243000826B128A41EA0251826B127D41EA02618B
:10244000826B9269114302689200A2F1C042C2F805
:10245000041107E06FF0704201688900A1F1C041EA
:10246000C1F80421704700001CB50121802005F04F
:10247000A3FC4FF40060ADF8000010208DF80300BD
:1024800003208DF8020069462D4800F053FA02211E
:102490002B4800F0E5FA4FF48060ADF800004820CA
:1024A0008DF803006946264800F044FA4FF4806135
:1024B000234800F0D5FAFFF743FC002021490860CB
:1024C00014200AF023FD01201F49C1F8AC0132207D
:1024D0000AF01CFD00208DF80400012201A900F083
:1024E00035F9012201A9A42000F030F916208DF859
:1024F0000400012201A9802000F028F90C208DF8A9
:102500000400012201A9882000F020F9022201A97B
:10251000A12000F021F89DF8040030280ED19DF88C
:10252000050003280AD19DF805009DF8042000EB62
:10253000022106A0FDF718FF00201CBD0120FCE7CA
:10254000001C0140AC8123420080234243545020B0
:1025500049443A25780D0A002DE9F04106460F4618
:102560001546FFF7A9FC7020FFF774FCFFF7EEFC9F
:10257000F0B2FFF76FFCFFF7E9FCFFF79DFC71205D
:10258000FFF768FCFFF7E2FC00240BE0691EA142A4
:1025900001D0012100E000210846FFF723FC385557
:1025A000601CC4B2AC42F1DBFFF7ACFCBDE8F081CB
:1025B00071B581B00024002661480078401C604954
:1025C0000870084600780A2190FBF1F201FB120026
:1025D00018B15B4800780A2867DA012201A90220B5
:1025E000FFF7BAFF9DF8040000F00F0000287ED02E
:1025F0009DF8040000F00F00062878DA9DF804002A
:1026000000F00F01FF208840C5B2E843C0B240F09F
:10261000C0004C4981F8200000245AE0494890F855
:1026200020000121A1400840F0B3474931F81400CF
:1026300004226946FFF790FF424890F8300000F00E
:102640000100C0B19DF801009DF8001001F00F01DC
:1026500000EB01203B49163121F814009DF80300DE
:102660009DF8021001F00F0100EB012135480C30FC
:1026700020F814101DE09DF801009DF8001001F0F5
:102680000F0100EB0120C0F5F07081B22D480C3035
:1026900020F814109DF803009DF8021001F00F01BE
:1026A00000EB0121274801E011E020E0163020F87E
:1026B00014109DF8000000F0F000802807D00021E1
:1026C0002048163020F814100A3820F81410601C26
:1026D000C4B2052CA2DB01261A48808920B919480A
:1026E000C08A08B9002001900020154908709DF8A3
:1026F000040000F01F00D0B9124890F8200000F04C
:10270000800040B10F4890F8200020F080000D4973
:1027100081F820000BE04FF6FF700A498881C882DB
:10272000084690F8200000F0E00081F820000448FE
:102730000078F02802DD0A200149087030467CBD8F
:102740003400002038000020622B01082DE9F04100
:1027500005460E4617464FF00008FFF7ADFB702008
:10276000FFF778FBFFF7F2FBE8B2FFF773FBFFF729
:10277000EDFB00240BE0305DFFF76CFBFFF7E6FBA1
:102780008046B8F1000F00D003E0601CC4B2BC4228
:10279000F1DB00BFFFF7B6FB4046BDE8F08100006B
:1027A0002DE9FC4107460D4600260024002000903C
:1027B000019008205B490860102048604020886034
:1027C0000020C8604FF480600861084605F050FCA6
:1027D0001020FFF705FC044614B12046BDE8FC813B
:1027E0005148008800044F49086037204860402065
:1027F00088600020C8604FF480600861084605F0DA
:1028000037FC3720FFF7ECFB04460CB12046E5E728
:102810004FF0FF304549086008204860302088604C
:102820000220C8600020086101204861084605F0C8
:10283000BFFB00203B49086033204860402088608F
:102840000020C8604FF480600861084605F010FC65
:102850003320FFF7C5FB04460CB12046BEE70CE071
:102860004FF4001005F0CEFB38B105F0FBFB4DF83E
:102870002600761C022E00D306E02D48406B40F265
:102880002A6108400028EBD000BF082005F0BAFB01
:1028900020B1082005F070FB04209FE7022005F01E
:1028A000B1FB20B1022005F067FB022096E7202053
:1028B00005F0A8FB20B1202005F05EFB06208DE787
:1028C0004FF4007005F09EFB28B14FF4007005F046
:1028D00053FB072082E740F2FF5005F04DFB0098C4
:1028E0000006009901F47F4140EA0120009901F4BB
:1028F0007F0140EA1120009940EA11606860019868
:102900000006019901F47F4140EA0120019901F498
:102910007F0140EA1120019940EA116028602046B9
:102920005CE7000078030020280000208C030020D2
:10293000008001402DE9F0410246002500260020DC
:1029400000230024002791F803C00CF00F0591F834
:1029500003C00CF0100CBCF1000F03D091F802C0C2
:102960004CEA050591F800C0BCF1000F31D01468A5
:1029700000202BE04FF0010C0CFA00F3B1F800C07E
:102980000CEA03069E4220D183004FF00F0C0CFA94
:1029900003F7BC4305FA03FC4CEA040491F803C0B6
:1029A000BCF1280F06D14FF0010C0CFA00FCC2F864
:1029B00014C00AE091F803C0BCF1480F05D14FF0F4
:1029C000010C0CFA00FCC2F810C0401C0828D1D33E
:1029D0001460B1F800C0BCF1FF0F34DD5468002072
:1029E0002EE000F1080C4FF0010808FA0CF3B1F8E2
:1029F00000C00CEA03069E4221D183004FF00F0C69
:102A00000CFA03F7BC4305FA03FC4CEA040491F802
:102A100003C0BCF1280F05D100F1080C08FA0CF82E
:102A2000C2F8148091F803C0BCF1480F07D100F13F
:102A3000080C4FF0010808FA0CF8C2F81080401C8E
:102A40000828CED35460BDE8F08102460020936888
:102A50000B400BB1012000E000207047416170473E
:102A6000016170470EB50121802005F0A5F94FF4F2
:102A70000060ADF8000010208DF8030003208DF8F1
:102A8000020069463A48FFF755FF02213848FFF730
:102A9000E7FF4FF48060ADF8000048208DF8030098
:102AA00069463348FFF746FF4FF480613048FFF72F
:102AB000D7FFFFF745F900202E4908600A200AF0E9
:102AC00025FA01202C49C1F8AC010A200AF01EFAAF
:102AD0004FF48060ADF8000028208DF803006946AF
:102AE0002348FFF727FF4FF480612148FFF7B6FF27
:102AF00064200AF00BFA042201A948F2401000F009
:102B000051F800208DF8080001A91CA0FDF72CFC4D
:102B10001DA101A8FDF78AFE40BB02208DF804002C
:102B2000012201A948F2400000F09CF9012201A90C
:102B300048F2470000F036F89DF80400602807DAF4
:102B40009DF8041012A0FDF70FFC012000F05CF9C5
:102B50000A200AF0DBF900208DF80400012201A907
:102B600048F2400000F07EF900200EBD0120FCE795
:102B7000001C0140AC81234200802342435450207A
:102B800049443A25730D0A003931343700000000FA
:102B900044656661756C74205665723A25640D0A49
:102BA000000000002DE9F04105460F461646FFF7EC
:102BB00083F92820FFF74EF9FFF7C8F92812FFF72D
:102BC00049F9FFF7C3F9E8B2FFF744F9FFF7BEF997
:102BD000FFF772F92920FFF73DF9FFF7B7F9002455
:102BE0000BE0711EA14201D0012100E00021084646
:102BF000FFF7F8F83855601CC4B2B442F1DBFFF7B8
:102C000081F9BDE8F081000071B583B00024002691
:102C100079480078401C78490870084600780A21F5
:102C200090FBF1F201FB120018B1734800780A28FA
:102C30007EDA012203A948F24E10FFF7B3FF9DF898
:102C40000C0000F0800068B19DF80C0000F00F004F
:102C5000062807DA00200190012201A948F24E104F
:102C600000F000F99DF80C0000F00F0000285FD084
:102C70009DF80C0000F00F000628D9DA9DF80C0032
:102C800000F00F01FF208840C0B201905B4890F82F
:102C900020509DF80400C043C0B240F0C000574926
:102CA00081F82000084681898182C18AC18300247D
:102CB00046E0524890F820000121A140084020B38E
:102CC0004F4931F81400042202A9FFF76BFF4B486B
:102CD00090F8300000F00100C0B19DF808009DF8A8
:102CE000091000EB012081B24448163020F814107E
:102CF0009DF80A009DF80B1000EB0120C0F548700C
:102D000081B23E480C3020F8141017E09DF80800FE
:102D10009DF8091000EB012081B238480C3020F8F2
:102D200014109DF80A009DF80B1000EB012000E044
:102D300036E081B23148163020F81410601CC4B25D
:102D4000052CB6DB01262D4880892E49098888424A
:102D500005DC2A48C08A2B49498888421DDD9DF838
:102D60000C0000F00F0001280ADD2448C089234927
:102D700088810846008BC88200201F4908700FE038
:102D80001E48808A1D4988810846C08BC8828020E1
:102D90000390084680F8205002E000201649087091
:102DA0009DF80C0000F08F0080281AD1134890F88D
:102DB000200000F0800040B1104890F8200020F082
:102DC00080000E4981F820000BE04FF6FF700B49A0
:102DD0008881C882084690F8200000F0E00081F861
:102DE000200005480078F02802DD0A20024908701A
:102DF000304604B070BD00003500002038000020CF
:102E0000242C01085003002038B50546002400207A
:102E10008DF800008DF8015000BF09E09DF800001A
:102E20000F49095D0844C0B28DF80000601CC4B2AF
:102E3000B82CF3D39DF80000C043401CC0B28DF8FD
:102E40000000B822064948F2470000F00BF80222C1
:102E5000694648F2FF0000F005F8002038BD000088
:102E60006C2B01082DE9F04104460E4617464FF041
:102E70000008FFF721F82820FEF7ECFFFFF766F8BF
:102E80002012FEF7E7FFFFF761F8E0B2FEF7E2FF7E
:102E9000FFF75CF800250BE0705DFEF7DBFFFFF746
:102EA00055F88046B8F1000F00D003E0681CC5B2A9
:102EB000BD42F1DB00BFFFF725F84046BDE8F081D9
:102EC0002DE9F05F82460F4614462046E21704EBD8
:102ED0005272D2102146E31704EB5373DB10A4EBBC
:102EE000C3030BB1012300E000231A44624302F044
:102EF000FF099AF800600AF1010082460578812EE8
:102F000005DB402D03DBFF2D01D0FF2E0DD14FF04F
:102F1000000B06E0002007F8010B0BF1010000F0A8
:102F2000FF0BCB45F6DBBDE8F09F7F2D03DAA5F163
:102F30004000C5B202E0A5F14100C5B2A6F1810092
:102F4000C6B2BE2000FB065000FB09F80C2C04D0D2
:102F5000102C0CD0182C1ED113E01048D0F809000A
:102F600000EB08014A46384608F0B8F913E00B4870
:102F7000D0F8110000EB08014A46384608F0AEF9D7
:102F800009E00648D0F8190000EB08014A46384627
:102F900008F0A4F900BF00BF00BFC4E7E0C40020F0
:102FA00000BFFEE710B500200F4908600F48006819
:102FB00020F070400D4908600846006840F040501D
:102FC000086000200A49C1F89C01022009F0C4FFF2
:102FD000012005490860022009F0BEFF00200449D5
:102FE000C1F8980110BD000098812142000C0140F9
:102FF0000080214208B50121082004F0DDFEC02038
:10300000ADF8000010208DF8030003208DF80200B9
:1030100069460448FFF78EFCC0210248FFF720FDF7
:1030200008BD0000000C014010B500200F490860E9
:103030000F48006820F070400D490860084600689D
:1030400040F04050086001200A49C1F89C0102206C
:1030500009F082FF012005490860022009F07CFF89
:1030600000200449C1F8980110BD00009881214258
:10307000000C01400080214270B50546002417482D
:10308000006820F07040154908600846006840F06C
:1030900000400860002616E0002011490860022068
:1030A00009F05AFF01200F49C1F898016006040E8B
:1030B0000B487C38006808B1601CC4B2012009F0DC
:1030C0004BFF701CC6B2082EE6DB15B9FFF7ACFF4C
:1030D00001E0FFF767FF204670BD0000000C0140D3
:1030E000988121420080214270B50446184800684A
:1030F00020F07040164908600846006840F04050D3
:10310000086000201349086000251EE0E00920B196
:1031100001201049091D086003E000200D49091D28
:1031200008606006040E022009F016FF012009491C
:103130000860022009F010FF00200749C1F898013B
:10314000022009F009FF681CC5B2082DDEDB70BD46
:10315000000C0140988121420080214210B50F48A7
:10316000006820F070400D4908600846006840F093
:103170004050086001200A4908600A49C1F89801D6
:10318000042009F0E9FE002005490860042009F048
:10319000E3FE00200349C1F8980110BD000C014076
:1031A0009C8121420080214210B50F48006820F028
:1031B00070400D4908600846006840F040500860C3
:1031C00000200A4908600A49C1F89C01042009F05E
:1031D000C3FE0120054908600549C1F89C0104208F
:1031E00009F0BAFE10BD0000000C01409881214298
:1031F0000080214210B500241448006820F070407F
:10320000124908600846006840F00040086001204C
:103210000F49086009F0A0FE01200E49C1F898018D
:1032200009F09AFE07E0601CC4B2FA2C03DDFFF738
:10323000BBFF012010BD0648803800680028F2D18D
:103240000349091F086000BFF4E70000000C0140BB
:103250009C8121420080214272B6704762B670475D
:103260001CB504460020019000902148008800040D
:10327000204908600D204860402088600020C86018
:103280004FF480600861084604F0F2FE1A48406B73
:10329000009002E01848406B0090009800F0450054
:1032A0000028F7D0012004F0ADFE20B1012004F089
:1032B00063FE01201CBD042004F0A4FE20B1042004
:1032C00004F05AFE0320F5E70B4800690D2801D0F1
:1032D0001020EFE740F2FF5004F04EFE0648406930
:1032E00001900198C0F3432020700020E2E7000025
:1032F00028000020780300200080014008B501214B
:10330000442004F059FD1C20ADF8000048208DF841
:10331000030069460648FFF70DFB0120ADF80000E9
:1033200028208DF8030069460248FFF703FB08BD1B
:10333000001801400008014010B5044614B10120F6
:103340002C4908702B480078002837D010212A48D3
:10335000FFF77BFB78B108212748FFF776FB50B1D8
:1033600004212548FFF771FB28B101212348FFF70D
:103370006CFB012822D10A2009F0C8FD00201D495C
:10338000087010211C48FFF760FB08B9012010BD30
:1033900008211948FFF759FB08B90220F7E7042173
:1033A0001548FFF752FB08B90320F0E70121134845
:1033B000FFF74BFB01281BD10420E8E710210E4842
:1033C000FFF743FB012813D108210B48FFF73DFB12
:1033D00001280DD104210848FFF737FB012807D148
:1033E00001210648FFF731FB10B90120014908709F
:1033F0000020CCE71E00002000180140000801401A
:1034000070B504460026174805884088454315488E
:10341000808846F60401884216D112488079012836
:1034200012D100200F4988712A2048812B208881E1
:103430000021084604F066F801200A4988712B2013
:1034400048812A20888103E00021084604F05AF8C8
:1034500004F04AFA002602E003480480761CAE42DB
:10346000FAD370BD500300200008006C10B504466C
:10347000002C66D16C498871F02008804FF4A07050
:1034800048800846808849F2413188420BD066481E
:10349000808846F60401884205D06348808845F25A
:1034A000103188421AD12C205F4908812A20488196
:1034B0002B2088810846808846F60401884205D082
:1034C0005948808845F21031884206D14FF4A070E7
:1034D000554908804FF4F0704880A1E05248808838
:1034E00045F21051884210D14FF430504E490881B6
:1034F0004FF4285048814FF42C5088814FF4F070DD
:1035000008804FF4487048808AE04748808841F638
:10351000631188420DD12C20434908812B2048811A
:103520002A2088814FF4F07008804FF4487048805A
:1035300076E022203C490881202048812120888192
:103540006EE00120384988714FF4A0700880F020A7
:1035500048800846808849F24131884205D0324887
:10356000808845F21031884207D12C202E490881ED
:103570002A2048812B2088813FE02B48808846F60E
:103580000401884207D12C20274908812B2048813B
:103590002A20888131E02448808845F210518842F1
:1035A00010D14FF43050204908814FF42850488101
:1035B0004FF42C5088814FF4487008804FF4F0701D
:1035C00048801AE01848808841F6631188420DD17E
:1035D0002C20154908812A2048812B2088814FF40E
:1035E000487008804FF4F070488006E022200E49B1
:1035F000088121204881202088810B48808846F658
:103600000401884205D00848808845F2103188427C
:1036100006D14FF4F070044908804FF4A070488040
:10362000002003F0F9FD10BD500300202DE9FF4FED
:1036300084B081468A460020039002900698A0EB51
:1036400009050798A0EB0A06CDF80490CDF800A074
:10365000002D01DD012705E00DB9002702E04FF044
:10366000FF376D42002E02DD4FF0010806E016B96B
:103670004FF0000802E04FF0FF387642B54201DD1E
:103680002C4600E034464FF0000B21E0009A91B246
:10369000019A90B200F022F803982844039002980F
:1036A000304402900398A04205DD0398001B03906C
:1036B0000198384401900298A04205DD0298001B51
:1036C00002900098404400900BF101001FFA80FB2B
:1036D000601C8345DADD08B0BDE8F08F30B50446E4
:1036E0000D462946204603F00DFF04F0FDF8024880
:1036F00000880249088030BD200000200008006CCE
:10370000F0B504460D4616461F462B46324629465E
:103710002046FFF78BFF3B46224629462046FFF70F
:1037200085FF3B46324639462046FFF77FFF3B4642
:10373000324629463046FFF779FFF0BD2DE9F043C8
:1037400006460F469046002445460320A0EB480954
:103750003CE07A1B91B2321990B2FFF7BFFF3A1BDF
:1037600091B2721990B2FFF7B9FF3A1991B272197A
:1037700090B2FFF7B3FF7A1991B2321990B2FFF706
:10378000ADFF7A1991B2321B90B2FFF7A7FF3A1939
:1037900091B2721B90B2FFF7A1FF7A1B91B2321B5C
:1037A00090B2FFF79BFF3A1B91B2721B90B2FFF7EA
:1037B00095FF641CB9F1000F03DAA000801D81445D
:1037C00004E0601B80000A3081446D1EAC42C0DD05
:1037D000BDE8F08330B503460C4615465A4880884C
:1037E00049F24131884205D05748808845F210316E
:1037F000884214D15449488904F070F8181204F032
:1038000067F8D8B204F064F84F49888904F066F884
:10381000201204F05DF8E0B204F05AF88CE04A4857
:10382000808845F21051884220D14749488904F0E8
:1038300055F8181204F04CF843494989491C88B2DC
:1038400004F04CF8D8B204F043F83F49888904F0FA
:1038500045F8201204F03CF83B498989491C88B29C
:1038600004F03CF8E0B204F033F865E036488088B4
:1038700041F66311884228D13348807920B9324813
:103880000088401EC01A83B22F49488904F026F8E8
:10389000181204F01DF8D8B204F01AF8181204F047
:1038A00017F8D8B204F014F82749888904F016F8FC
:1038B000201204F00DF8E0B204F00AF8201204F02F
:1038C00007F8E0B204F004F836E01F48808846F6B6
:1038D000040188421DD11C488079012804D11A486E
:1038E0000088401EC01A83B21749488903F0F6FFCA
:1038F000181203F0EDFFD8B203F0EAFF12498889ED
:1039000003F0ECFF201203F0E3FFE0B203F0E0FF6E
:1039100012E00D488079012804D10B480088401E30
:10392000C01A83B208494889194603F0E7FF0649DF
:103930008889214603F0E2FF034800890349088093
:10394000881C058030BD000050030020FE07006C7D
:103950002DE9FC4F05460E4617469846DDF82C909B
:10396000002001902748808846F60401884229D12A
:1039700024488079012825D1AB4635462148008866
:10398000C01B401E86B247461E480088A0EB0B00B5
:10399000401E1FFA80F800201A4988712A204881A9
:1039A0002B20888143463A4631462846CDF8009080
:1039B000FFF7CEFF0120134988712B2048812A2070
:1039C00088811CE0781B401C80B20190344614E0D2
:1039D0002146284603F096FD03F086FF4FF0000ACB
:1039E00006E00948A0F800900AF101001FFA80FAE9
:1039F00001988245F5DB601C84B24445E8DDBDE8F2
:103A0000FC8F0000500300200008006C00B59FB040
:103A10000121080204F0A0F901214FF4B47004F070
:103A2000CBF90120ADF8780010208DF87B00032041
:103A30008DF87A001EA9FE48FEF77CFF4CF2337029
:103A4000ADF8780018208DF87B0003208DF87A00FF
:103A50001EA9F848FEF76EFF4FF68070ADF87800AB
:103A600018208DF87B0003208DF87A001EA9F248FB
:103A7000FEF760FF41F20100ADF8780018208DF8E4
:103A80007B0003208DF87A001EA9EC48FEF752FF58
:103A900001200890002009900F200A9000200B9030
:103AA0000C900D900E900190029003200390002046
:103AB000049005900690079006200F90002010902B
:103AC00011901020129000201390159014901690D1
:103AD00017904FF480501890002019904FF48040B8
:103AE0001A9000201B9008A81C9001A81D900FA8F8
:103AF000FEF746FC01210620FEF728FC322009F0E3
:103B000005FA002003F052FBCD49888008468088E2
:103B1000FF280ADB084680884FF6FF71884204D0F0
:103B2000C7488088B0F5134F7ED1D32003F0D6FE6E
:103B300003F032FBC249888003F02EFBC049888025
:103B400003F02AFBBE498880084680884FF6FF7143
:103B500001EA0020BA49888003F01EFBB849898831
:103B60000843B74988800846808849F24131884235
:103B70005AD0BF2003F0B2FE03F00EFBB04988809C
:103B800003F00AFBAE49888003F006FBAC4988804D
:103B900003F002FBAA498880084680884FF6FF712F
:103BA00001EA0020A649888003F0F6FAA449898832
:103BB0000843A34988800846808846F60401884265
:103BC0007AD0D42003F08AFE03F0E6FA9C4988807C
:103BD00003F0E2FA9A49888003F0DEFA9849888077
:103BE000084680884FF6FF7101EA002094498880DA
:103BF00003F0D2FA9249898808439149888008469F
:103C0000808845F21031884256D04FF45A4003F074
:103C100065FE03F0C1FA8A4988804FF45B4003F0E7
:103C20005DFE03F0B9FA00E046E085498880084669
:103C300080884FF6FF7101EA0020814988804FF4A7
:103C40005C4003F04BFE03F0A7FA7D4989880843E6
:103C50007B49888008468088B0F5004F02D145F244
:103C6000105088807648808845F21051884223D0D1
:103C7000A12003F033FE03F08FFA7149888003F02E
:103C80008BFA6F498880084680884FF6FF7101EAF9
:103C900000206B49888003F07FFA694989880843CE
:103CA000674988800846808845F26171884203D15F
:103CB00041F66310624988806148818861A0FCF701
:103CC00053FB5F48808849F2413188427ED1CF2042
:103CD00003F004FE002003F0FBFDC12003F0F8FD1B
:103CE000302003F0F5FDED2003F0F8FD642003F033
:103CF000EFFD032003F0ECFD122003F0E9FD81202D
:103D000003F0E6FDE82003F0E9FD852003F0E0FD87
:103D1000102003F0DDFD7A2003F0DAFDCB2003F064
:103D2000DDFD392003F0D4FD2C2003F0D1FD00206F
:103D300003F0CEFD342003F0CBFD022003F0C8FDDC
:103D4000F72003F0CBFD202003F0C2FDEA2003F0B2
:103D5000C5FD002003F0BCFD002003F0B9FDC0202C
:103D600003F0BCFD1B2003F0B3FDC12003F0B6FD42
:103D7000012003F0ADFDC52003F0B0FD302003F0BD
:103D8000A7FD302003F0A4FDC72003F0A7FDB72056
:103D900003F09EFD362003F0A1FD482003F098FDBE
:103DA0003A2003F09BFD552003F092FDB12003F073
:103DB00095FD002003F08CFD1A2003F089FDB6204C
:103DC00003F08CFD0A2003F083FD00E0AAE0A220AE
:103DD00003F07EFDF22003F081FD002003F078FD6A
:103DE000262003F07BFD012003F072FDE02003F0AC
:103DF00075FD0F2003F06CFD2A2003F069FD2820DB
:103E000003F066FD082003F063FD0E2003F060FD63
:103E1000082003F05DFD542003F05AFDA92003F0B3
:103E200057FD432003F054FD0A2003F051FD11E03B
:103E3000000C014000140140001801400020014026
:103E400050030020204C43442049443A25780D0A71
:103E5000000000000F2003F03BFD002003F038FDC0
:103E6000002003F035FD002003F032FD002003F0B8
:103E70002FFDE12003F032FD002003F029FD152085
:103E800003F026FD172003F023FD072003F020FD9B
:103E9000112003F01DFD062003F01AFD2B2003F076
:103EA00017FD562003F014FD3C2003F011FD052002
:103EB00003F00EFD102003F00BFD0F2003F008FDB2
:103EC0003F2003F005FD3F2003F002FD0F2003F02B
:103ED000FFFC2B2003F002FD002003F0F9FC002082
:103EE00003F0F6FC012003F0F3FC3F2003F0F0FCAC
:103EF0002A2003F0F3FC002003F0EAFC002003F08A
:103F0000E7FC002003F0E4FCEF2003F0E1FC1120CB
:103F100003F0E4FC782008F0F9FF292003F0DEFC30
:103F200003F01DB9FE48808846F6040188427CD122
:103F3000112003F0D3FC142008F0E8FFD02003F098
:103F4000CDFC072003F0C4FC422003F0C1FC1D207F
:103F500003F0BEFCD12003F0C1FC002003F0B8FC4C
:103F60001A2003F0B5FC092003F0B2FCD22003F0C4
:103F7000B5FC012003F0ACFC222003F0A9FCC0201A
:103F800003F0ACFC102003F0A3FC3B2003F0A0FCEA
:103F9000002003F09DFC022003F09AFC112003F0A6
:103FA00097FCC52003F09AFC032003F091FCC82085
:103FB00003F094FC002003F08BFC252003F088FC28
:103FC000212003F085FC052003F082FC002003F093
:103FD0007FFC0A2003F07CFC652003F079FC25209F
:103FE00003F076FC772003F073FC502003F070FCA4
:103FF0000F2003F06DFC002003F06AFCF82003F0B2
:104000006DFC012003F064FCFE2003F067FC00203F
:1040100003F05EFC022003F05BFC202003F05EFC5A
:10402000362003F05BFC082000E02CE003F050FC9D
:104030003A2003F053FC552003F04AFC2B2003F0F8
:104040004DFC002003F044FC002003F041FC012063
:1040500003F03EFC3F2003F03BFC2A2003F03EFC33
:10406000002003F035FC002003F032FC012003F0B7
:104070002FFCDF2003F02CFC782008F047FF2920DC
:1040800003F02CFC4CE7A648808845F210318842AA
:1040900040F07C87ED2003F021FC012003F018FCA8
:1040A000FE2003F015FCEE2003F018FCDE2003F0E8
:1040B0000FFC212003F00CFCF12003F00FFC012089
:1040C00003F006FCDF2003F009FC102003F000FCE5
:1040D000C42003F003FC8F2003F0FAFBC62003F09A
:1040E000FDFB002003F0F4FBE22003F0F1FBE220F3
:1040F00003F0EEFBE22003F0EBFBBF2003F0EEFB4E
:10410000AA2003F0E5FBB02003F0E8FB0D2003F04C
:10411000DFFB002003F0DCFB0D2003F0D9FB0020C7
:1041200003F0D6FB112003F0D3FB002003F0D0FBFB
:10413000192003F0CDFB002003F0CAFB212003F07F
:10414000C7FB002003F0C4FB2D2003F0C1FB0020BF
:1041500003F0BEFB3D2003F0BBFB002003F0B8FBE7
:104160005D2003F0B5FB002003F0B2FB5D2003F0FF
:10417000AFFB002003F0ACFBB12003F0AFFB8020CD
:1041800003F0A6FB002003F0A3FB8B2003F0A0FBB1
:10419000002003F09DFB962003F09AFB002003F023
:1041A00097FBB22003F09AFB002003F091FB002064
:1041B00003F08EFB022003F08BFB002003F088FB52
:1041C000032003F085FB002003F082FBB32003F003
:1041D00085FB002003F07CFB002003F079FB00202E
:1041E00003F076FB002003F073FB002003F070FB6C
:1041F000002003F06DFB002003F06AFB002003F0B9
:1042000067FB002003F064FB002003F061FB00204B
:1042100003F05EFB002003F05BFB002003F058FB83
:10422000002003F055FB002003F052FB002003F0B8
:104230004FFB002003F04CFB002003F049FB002063
:1042400003F046FB002003F043FB002003F040FB9B
:10425000002003F03DFB002003F03AFB002003F0B8
:1042600037FBB42003F03AFB8B2003F031FB002036
:1042700003F02EFB962003F02BFB002003F028FB1D
:10428000A12003F025FB002003F022FBB52003F062
:1042900025FB022003F01CFB002003F019FB032088
:1042A00003F016FB002003F013FB042003F010FBC7
:1042B000002003F00DFBB62003F010FB002003F0FC
:1042C00007FB002003F004FBB72003F007FB0020EE
:1042D00003F0FEFA002003F0FBFA3F2003F0F8FAA7
:1042E000002003F0F5FA5E2003F0F2FA002003F05C
:1042F000EFFA642003F0ECFA002003F0E9FA8C20D6
:1043000003F0E6FA002003F0E3FAAC2003F0E0FA51
:10431000002003F0DDFADC2003F0DAFA002001E0EF
:104320005003002003F0D4FA702003F0D1FA0020EB
:1043300003F0CEFA902003F0CBFA002003F0C8FA85
:10434000EB2003F0C5FA002003F0C2FADC2003F0F2
:10435000BFFA002003F0BCFAB82003F0BFFA002037
:1043600003F0B6FA002003F0B3FA002003F0B0FA2D
:10437000002003F0ADFA002003F0AAFA002003F0B9
:10438000A7FA002003F0A4FA002003F0A1FABA2053
:1043900003F0A4FA242003F09BFA002003F098FA1B
:1043A000002003F095FA002003F092FAC12003F0F8
:1043B00095FA202003F08CFA002003F089FA5420AB
:1043C00003F086FA002003F083FAFF2003F080FA5E
:1043D000002003F07DFAC22003F080FA0A2003F0E7
:1043E00077FA002003F074FA042003F071FA002039
:1043F00003F06EFAC32003F071FA3C2003F068FA70
:10440000002003F065FA3A2003F062FA002003F07E
:104410005FFA392003F05CFA002003F059FA3720E4
:1044200003F056FA002003F053FA3C2003F050FA50
:10443000002003F04DFA362003F04AFA002003F082
:1044400047FA322003F044FA002003F041FA2F200B
:1044500003F03EFA002003F03BFA2C2003F038FA78
:10446000002003F035FA292003F032FA002003F08F
:104470002FFA262003F02CFA002003F029FA24203A
:1044800003F026FA002003F023FA242003F020FA98
:10449000002003F01DFA232003F01AFA002003F095
:1044A00017FA3C2003F014FA002003F011FA36202A
:1044B00003F00EFA002003F00BFA322003F008FAA2
:1044C000002003F005FA2F2003F002FA002003F089
:1044D000FFF92C2003F0FCF9002003F0F9F9292062
:1044E00003F0F6F9002003F0F3F9262003F0F0F9C9
:1044F000002003F0EDF9242003F0EAF9002003F096
:10450000E7F9242003F0E4F9002003F0E1F9232087
:1045100003F0DEF9002003F0DBF9C42003F0DEF93C
:10452000622003F0D5F9002003F0D2F9052003F052
:10453000CFF9002003F0CCF9842003F0C9F9002062
:1045400003F0C6F9F02003F0C3F9002003F0C0F92E
:10455000182003F0BDF9002003F0BAF9A42003F0FD
:10456000B7F9002003F0B4F9182003F0B1F90020E6
:1045700003F0AEF9502003F0ABF9002003F0A8F9E6
:104580000C2003F0A5F9002003F0A2F9172003F096
:104590009FF9002003F09CF9952003F099F9002081
:1045A00003F096F9F32003F093F9002003F090F95B
:1045B000E62003F08DF9002003F08AF9C52003F00E
:1045C0008DF9322003F084F9002003F081F94420B2
:1045D00003F07EF9002003F07BF9652003F078F901
:1045E000002003F075F9762003F072F9002003F043
:1045F0006FF9882003F06CF9002003F069F9C620F8
:1046000003F06CF9202003F063F9002003F060F957
:10461000172003F05DF9002003F05AF9012003F0A0
:1046200057F9002003F054F9C72003F057F9002090
:1046300003F04EF9002003F04BF9002003F048F995
:10464000002003F045F9C82003F048F9002003F0EA
:104650003FF9002003F03CF9002003F039F9002075
:1046600003F036F9C92003F039F9002003F030F9DE
:10467000002003F02DF9002003F02AF9002003F0B8
:1046800027F9002003F024F9002003F021F900208D
:1046900003F01EF9002003F01BF9002003F018F9C5
:1046A000002003F015F9002003F012F9002003F0B8
:1046B0000FF9002003F00CF9002003F009F90020A5
:1046C00003F006F9002003F003F9E02003F006F9F7
:1046D000162003F0FDF8002003F0FAF81C2003F088
:1046E000F7F8002003F0F4F8212003F0F1F800209F
:1046F00003F0EEF8362003F0EBF8002003F0E8F8C2
:10470000462003F0E5F8002003F0E2F8522003F021
:10471000DFF8002003F0DCF8642003F0D9F8002073
:1047200003F0D6F87A2003F0D3F8002003F0D0F895
:104730008B2003F0CDF8002003F0CAF8992003F095
:10474000C7F8002003F0C4F8A82003F0C1F8002047
:1047500003F0BEF8B92003F0BBF8002003F0B8F86E
:10476000C42003F0B5F8002003F0B2F8CA2003F02B
:10477000AFF8002003F0ACF8D22003F0A9F8002035
:1047800003F0A6F8D92003F0A3F8002003F0A0F866
:10479000E02003F09DF8002003F09AF8F32003F0E6
:1047A00097F8002003F094F8E12003F097F8162022
:1047B00003F08EF8002003F08BF81C2003F088F83B
:1047C000002003F085F8222003F082F8002003F097
:1047D0007FF8362003F07CF8002003F079F84520BC
:1047E00003F076F8002003F073F8522003F070F81D
:1047F000002003F06DF8642003F06AF8002003F055
:1048000067F87A2003F064F8002003F061F88B2049
:1048100003F05EF8002003F05BF8992003F058F8ED
:10482000002003F055F8A82003F052F8002003F010
:104830004FF8B92003F04CF8002003F049F8C420E9
:1048400003F046F8002003F043F8CA2003F040F8D4
:10485000002003F03DF8D22003F03AF8002003F0E6
:1048600037F8D82003F034F8002003F031F8E020C6
:1048700003F02EF8002003F02BF8F32003F028F8C3
:10488000002003F025F8E22003F028F8052003F0CB
:104890001FF8002003F01CF80B2003F019F800208B
:1048A00003F016F81B2003F013F8002003F010F8B3
:1048B000342003F00DF8002003F00AF8442003F040
:1048C00007F8002003F004F84F2003F001F800205F
:1048D00002F0FEFF612002F0FBFF002002F0F8FF73
:1048E000792002F0F5FF002002F0F2FF882002F0AC
:1048F000EFFF002002F0ECFF972002F0E9FF00201C
:1049000002F0E6FFA62002F0E3FF002002F0E0FF45
:10491000B72002F0DDFF002002F0DAFFC22002F033
:10492000D7FF002002F0D4FFC72002F0D1FF002003
:1049300002F0CEFFD12002F0CBFF002002F0C8FF32
:10494000D62002F0C5FF002002F0C2FFDD2002F0F9
:10495000BFFF002002F0BCFFF32002F0B9FF0020EF
:1049600002F0B6FFE32002F0B9FF052002F0B0FF2D
:10497000002002F0ADFF0A2002F0AAFF002002F0A2
:10498000A7FF1C2002F0A4FF002002F0A1FF3320AB
:1049900002F09EFF002002F09BFF442002F098FFEF
:1049A000002002F095FF502002F092FF002002F05C
:1049B0008FFF622002F08CFF002002F089FF782038
:1049C00002F086FF002002F083FF882002F080FFC3
:1049D000002002F07DFF972002F07AFF002002F015
:1049E00077FFA62002F074FF002002F071FFB720CD
:1049F00002F06EFF002002F06BFFC22002F068FFA1
:104A0000002002F065FFC72002F062FF002002F0E4
:104A10005FFFD12002F05CFF002002F059FFD5209B
:104A200002F056FF002002F053FFDD2002F050FF9D
:104A3000002002F04DFFF32002F04AFF002002F0B8
:104A400047FFE42002F04AFF012002F041FF00206E
:104A500002F03EFF012002F03BFF002002F038FF91
:104A6000022002F035FF002002F032FF2A2002F07F
:104A70002FFF002002F02CFF3C2002F029FF002035
:104A800002F026FF4B2002F023FF002002F020FF5F
:104A90005D2002F01DFF002002F01AFF742002F0DA
:104AA00017FF002002F014FF842002F011FF002005
:104AB00002F00EFF932002F00BFF002002F008FF2F
:104AC000A22002F005FF002002F002FFB32002F056
:104AD000FFFE002002F0FCFEBE2002F0F9FE0020E6
:104AE00002F0F6FEC42002F0F3FE002002F0F0FE19
:104AF000CD2002F0EDFE002002F0EAFED32002F00D
:104B0000E7FE002002F0E4FEDD2002F0E1FE0020DE
:104B100002F0DEFEF32002F0DBFE002002F0D8FE01
:104B2000E52002F0DBFE002002F0D2FE002002F0C1
:104B3000CFFE002002F0CCFE002002F0C9FE0220D1
:104B400002F0C6FE002002F0C3FE292002F0C0FEE3
:104B5000002002F0BDFE3C2002F0BAFE002002F070
:104B6000B7FE4B2002F0B4FE002002F0B1FE5D2043
:104B700002F0AEFE002002F0ABFE742002F0A8FEB0
:104B8000002002F0A5FE842002F0A2FE002002F028
:104B90009FFE932002F09CFE002002F099FEA220CE
:104BA00002F096FE002002F093FEB32002F090FE89
:104BB000002002F08DFEBE2002F08AFE002002F0EE
:104BC00087FEC42002F084FE002002F081FECD208A
:104BD00002F07EFE002002F07BFED32002F078FE81
:104BE000002002F075FEDC2002F072FE002002F0D0
:104BF0006FFEF32002F06CFE002002F069FEE6205A
:104C000002F06CFE112002F063FE002002F060FE54
:104C1000342002F05DFE002002F05AFE562002F021
:104C200057FE002002F054FE762002F051FE0020D4
:104C300002F04EFE772002F04BFE002002F048FE0C
:104C4000662002F045FE002002F042FE882002F0BD
:104C50003FFE002002F03CFE992002F039FE0020C9
:104C600002F036FEBB2002F033FE002002F030FEE0
:104C7000992002F02DFE002002F02AFE662002F0AC
:104C800027FE002002F024FE552002F021FE002025
:104C900002F01EFE552002F01BFE002002F018FE5E
:104CA000452002F015FE002002F012FE432002F023
:104CB0000FFE002002F00CFE442002F009FE00204E
:104CC00002F006FEE72002F009FE322002F000FEAC
:104CD000002002F0FDFD552002F0FAFD002002F058
:104CE000F7FD762002F0F4FD002002F0F1FD6620D1
:104CF00002F0EEFD002002F0EBFD672002F0E8FD7F
:104D0000002002F0E5FD672002F0E2FD002002F045
:104D1000DFFD872002F0DCFD002002F0D9FD9920A4
:104D200002F0D6FD002002F0D3FDBB2002F0D0FD42
:104D3000002002F0CDFD992002F0CAFD002002F013
:104D4000C7FD772002F0C4FD002002F0C1FD442021
:104D500002F0BEFD002002F0BBFD562002F0B8FDBF
:104D6000002002F0B5FD232002F0B2FD002002F089
:104D7000AFFD332002F0ACFD002002F0A9FD45207C
:104D800002F0A6FD002002F0A3FDE82002F0A6FD3F
:104D9000002002F09DFD002002F09AFD992002F013
:104DA00097FD002002F094FD872002F091FD002085
:104DB00002F08EFD882002F08BFD002002F088FDBD
:104DC000772002F085FD002002F082FD662002F0CF
:104DD0007FFD002002F07CFD882002F079FD00209C
:104DE00002F076FDAA2002F073FD002002F070FDB3
:104DF000BB2002F06DFD002002F06AFD992002F058
:104E000067FD002002F064FD662002F061FD0020D5
:104E100002F05EFD552002F05BFD002002F058FD1F
:104E2000552002F055FD002002F052FD442002F012
:104E30004FFD002002F04CFD442002F049FD00200F
:104E400002F046FD552002F043FD002002F040FD37
:104E5000E92002F043FDAA2002F03AFD002002F012
:104E600037FD002002F034FD002002F031FD00206B
:104E700002F034FDAA2002F02BFDCF2002F02EFD1F
:104E8000002002F025FD002002F022FD002002F0AB
:104E90001FFD002002F01CFD002002F019FD002083
:104EA00002F016FD002002F013FD002002F010FDBC
:104EB000002002F00DFD002002F00AFD002002F0AB
:104EC00007FD002002F004FD002002F001FD00209B
:104ED00002F0FEFC002002F0FBFC002002F0F8FCD7
:104EE000002002F0F5FCF02002F0F8FC002002F0B7
:104EF000EFFC502002F0ECFC002002F0E9FC002066
:104F000002F0E6FC002002F0E3FCF32002F0E6FCF5
:104F1000002002F0DDFCF92002F0E0FC062002F0A7
:104F2000D7FC102002F0D4FC292002F0D1FC002094
:104F300002F0CEFC3A2002F0D1FC552002F0C8FC71
:104F4000112002F0CBFC642007F0E0FF292002F0E2
:104F5000C5FC352002F0C2FC002002F0B9FC512053
:104F600002F0BCFCFF2002F0B3FC532002F0B6FCC0
:104F70002C2002F0ADFC552002F0B0FC822002F0A3
:104F8000A7FC2C2002F0AAFC02F0E9B8FE488088B9
:104F900045F2105188427DD155214FF4704002F006
:104FA000ADFCAA214FF2010002F0A8FC52214FF201
:104FB000020002F0A3FC08214FF2030002F09EFC65
:104FC00001214FF2040002F099FC0D214FF4304012
:104FD00002F094FC0D214BF2010002F08FFC0D2138
:104FE0004BF2020002F08AFC34214FF4364002F00A
:104FF00085FC34214BF2016002F080FC34214BF23D
:10500000026002F07BFC0D214FF4314002F076FC8F
:105010000D214BF2011002F071FC0D214BF2021038
:1050200002F06CFC34214FF4374002F067FC34216D
:105030004BF2017002F062FC34214BF2027002F07C
:105040005DFC00214FF4324002F058FC00214BF28D
:10505000012002F053FC00214BF2022002F04EFC32
:1050600024214FF4384002F049FC24214BF6010082
:1050700002F044FC24214BF6020002F03FFC012127
:105080004FF43F4002F03AFC0F214FF4334002F05E
:1050900035FC00E0FDE30F214BF2013002F02EFC65
:1050A0000F214BF2023002F029FC34214FF4394039
:1050B00002F024FC34214BF6011002F01FFC3421D5
:1050C0004BF6021002F01AFC08214FF4354002F0B2
:1050D00015FC08214BF2015002F010FC08214BF2A4
:1050E000025002F00BFC03214FF4424002F006FC98
:1050F00024214FF43A4002F001FC24214BF6012018
:1051000002F0FCFB24214BF6022002F0F7FB002109
:105110004FF43C4002F0F2FB78214BF6014002F0E4
:10512000EDFB00214BF6024002F0E8FB00214FF4BA
:105130003D4002F0E3FB78214BF6015002F0DEFB2C
:1051400000214BF6025002F0D9FB00214FF43E4003
:1051500002F0D4FB64214BF6016002F0CFFB00218A
:105160004FF4514002F0CAFB33214DF2011002F01E
:10517000C5FB00214DF2021002F0C0FB34214DF2BC
:10518000031002F0BBFB00214DF2041002F0B6FB4D
:105190003A214DF2051002F0B1FB00214DF206104C
:1051A00002F0ACFB4A214DF2071002F0A7FB0021F0
:1051B0004DF2081002F0A2FB5C214DF2091002F042
:1051C0009DFB00214DF20A1002F098FB81214DF267
:1051D0000B1002F093FB00214DF20C1002F08EFB3D
:1051E000A6214DF20D1002F089FB00214DF20E10A8
:1051F00002F084FBE5214DF20F1002F07FFB01214C
:105200004DF2101002F07AFB13214DF2111002F052
:1052100075FB01214DF2121002F070FB54214DF28A
:10522000131002F06BFB01214DF2141002F066FB2B
:1052300082214DF2151002F061FB01214DF2161092
:1052400002F05CFBCA214DF2171002F057FB02215D
:105250004DF2181002F052FB00214DF2191002F02D
:105260004DFB02214DF21A1002F048FB01214DF2D4
:105270001B1002F043FB02214DF21C1002F03EFB1A
:1052800034214DF21D1002F039FB02214DF21E10A7
:1052900002F034FB67214DF21F1002F02FFB0221B8
:1052A0004DF2201002F02AFB84214DF2211002F071
:1052B00025FB02214DF2221002F020FBA4214DF229
:1052C000231002F01BFB02214DF2241002F016FB0A
:1052D000B7214DF2251002F011FB02214DF22610EC
:1052E00002F00CFBCF214DF2271002F007FB022148
:1052F0004DF2281002F002FBDE214DF2291002F0DF
:10530000FDFA02214DF22A1002F0F8FAF2214DF2D4
:105310002B1002F0F3FA02214DF22C1002F0EEFAFB
:10532000FE214DF22D1002F0E9FA03214DF22E106C
:1053300002F0E4FA10214DF22F1002F0DFFA0321FF
:105340004DF2301002F0DAFA33214DF2311002F052
:10535000D5FA03214DF2321002F0D0FA6D214DF250
:10536000331002F0CBFA00214FF4524002F0C6FA9B
:1053700033214DF2012002F0C1FA00214DF202204A
:1053800002F0BCFA342101E0500300204DF203206A
:1053900002F0B4FA00214DF2042002F0AFFA3A21F3
:1053A0004DF2052002F0AAFA00214DF2062002F08B
:1053B000A5FA4A214DF2072002F0A0FA00214DF291
:1053C000082002F09BFA5C214DF2092002F096FAC7
:1053D00000214DF20A2002F091FA81214DF20B20BA
:1053E00002F08CFA00214DF20C2002F087FAA6217F
:1053F0004DF20D2002F082FA00214DF20E2002F053
:105400007DFAE5214DF20F2002F078FA01214DF2EC
:10541000102002F073FA13214DF2112002F06EFAFF
:1054200001214DF2122002F069FA54214DF21320AD
:1054300002F064FA01214DF2142002F05FFA822199
:105440004DF2152002F05AFA01214DF2162002F019
:1054500055FACA214DF2172002F050FA02214DF2FE
:10546000182002F04BFA00214DF2192002F046FA02
:1054700002214DF21A2002F041FA01214DF21B20C7
:1054800002F03CFA02214DF21C2002F037FA3421DE
:105490004DF21D2002F032FA02214DF21E2002F0E0
:1054A0002DFA67214DF21F2002F028FA02214DF259
:1054B000202002F023FA84214DF2212002F01EFA6E
:1054C00002214DF2222002F019FAA4214DF22320EC
:1054D00002F014FA02214DF2242002F00FFAB72153
:1054E0004DF2252002F00AFA02214DF2262002F0A8
:1054F00005FACF214DF2272002F000FA02214DF2E9
:10550000282002F0FBF9DE214DF2292002F0F6F905
:1055100002214DF22A2002F0F1F9F2214DF22B2066
:1055200002F0ECF902214DF22C2002F0E7F9FE2105
:105530004DF22D2002F0E2F903214DF22E2002F06F
:10554000DDF910214DF22F2002F0D8F903214DF2A0
:10555000302002F0D3F933214DF2312002F0CEF9A0
:1055600003214DF2322002F0C9F96D214DF23320B2
:1055700002F0C4F900214FF4534002F0BFF9332187
:105580004DF2013002F0BAF900214DF2023002F082
:10559000B5F934214DF2033002F0B0F900214DF29B
:1055A000043002F0ABF93A214DF2053002F0A6F9D1
:1055B00000214DF2063002F0A1F94A214DF20730E8
:1055C00002F09CF900214DF2083002F097F95C21BD
:1055D0004DF2093002F092F900214DF20A3002F04A
:1055E0008DF981214DF20B3002F088F900214DF246
:1055F0000C3002F083F9A6214DF20D3002F07EF955
:1056000000214DF20E3002F079F9E5214DF20F3014
:1056100002F074F901214DF2103002F06FF91321FC
:105620004DF2113002F06AF901214DF2123002F010
:1056300065F954214DF2133002F060F901214DF269
:10564000143002F05BF982214DF2153002F056F968
:1056500001214DF2163002F051F9CA214DF21730F6
:1056600002F04CF902214DF2183002F047F9002106
:105670004DF2193002F042F902214DF21A3002F0D7
:105680003DF901214DF21B3002F038F902214DF2B3
:105690001C3002F033F934214DF21D3002F02EF9A6
:1056A00002214DF21E3002F029F967214DF21F3020
:1056B00002F024F902214DF2203002F01FF984217A
:1056C0004DF2213002F01AF902214DF2223002F09F
:1056D00015F9A4214DF2233002F010F902214DF208
:1056E000243002F00BF9B7214DF2253002F006F913
:1056F00002214DF2263002F001F9CF214DF2273080
:1057000002F0FCF802214DF2283002F0F7F8DE2119
:105710004DF2293002F0F2F802214DF22A3002F067
:10572000EDF8F2214DF22B3002F0E8F802214DF2B3
:105730002C3002F0E3F8FE214DF22D3002F0DEF8BD
:1057400003214DF22E3002F0D9F810214DF22F3006
:1057500002F0D4F803214DF2303002F0CFF83321BB
:105760004DF2313002F0CAF803214DF2323002F02E
:10577000C5F86D214DF2333002F0C0F800214FF42E
:10578000544002F0BBF833214DF2014002F0B6F86C
:1057900000214DF2024002F0B1F834214DF20340F5
:1057A00002F0ACF800214DF2044002F0A7F83A21D3
:1057B0004DF2054002F0A2F800214DF2064002F041
:1057C0009DF84A214DF2074002F098F800214DF271
:1057D000084002F093F85C214DF2094002F08EF887
:1057E00000214DF20A4002F089F881214DF20B4070
:1057F00002F084F800214DF20C4002F07FF8A6215F
:105800004DF20D4002F07AF800214DF20E4002F008
:1058100075F8E5214DF20F4002F070F801214DF2CC
:10582000104002F06BF813214DF2114002F066F8BF
:1058300001214DF2124002F061F854214DF2134063
:1058400002F05CF801214DF2144002F057F8822179
:105850004DF2154002F052F801214DF2164002F0CF
:105860004DF8CA214DF2174002F048F802214DF2DE
:10587000184002F043F800214DF2194002F03EF8C2
:1058800002214DF21A4002F039F801214DF21B407D
:1058900000E006E302F032F802214DF21C4002F073
:1058A0002DF834214DF21D4002F028F802214DF26E
:1058B0001E4002F023F867214DF21F4002F01EF84F
:1058C00002214DF2204002F019F884214DF22140CE
:1058D00002F014F802214DF2224002F00FF8A42148
:1058E0004DF2234002F00AF802214DF2244002F06A
:1058F00005F8B7214DF2254002F000F802214DF2E3
:10590000264001F0FBFFCF214DF2274001F0F6FFCA
:1059100002214DF2284001F0F1FFDE214DF2294035
:1059200001F0ECFF02214DF22A4001F0E7FFF221E5
:105930004DF22B4001F0E2FF02214DF22C4001F02C
:10594000DDFFFE214DF22D4001F0D8FF03214DF285
:105950002E4001F0D3FF10214DF22F4001F0CEFF79
:1059600003214DF2304001F0C9FF33214DF23140A7
:1059700001F0C4FF03214DF2324001F0BFFF6D2161
:105980004DF2334001F0BAFF00214FF4554001F0D1
:10599000B5FF33214DF2015001F0B0FF00214DF26F
:1059A000025001F0ABFF34214DF2035001F0A6FF8D
:1059B00000214DF2045001F0A1FF3A214DF20550B3
:1059C00001F09CFF00214DF2065001F097FF4A21A3
:1059D0004DF2075001F092FF00214DF2085001F006
:1059E0008DFF5C214DF2095001F088FF00214DF23E
:1059F0000A5001F083FF81214DF20B5001F07EFF30
:105A000000214DF20C5001F079FFA6214DF20D500E
:105A100001F074FF00214DF20E5001F06FFFE521FF
:105A20004DF20F5001F06AFF01214DF2105001F0CC
:105A300065FF13214DF2115001F060FF01214DF27D
:105A4000125001F05BFF54214DF2135001F056FF4C
:105A500001214DF2145001F051FF82214DF21550F9
:105A600001F04CFF01214DF2165001F047FFCA2111
:105A70004DF2175001F042FF02214DF2185001F093
:105A80003DFF00214DF2195001F038FF02214DF287
:105A90001A5001F033FF01214DF21B5001F02EFF8F
:105AA00002214DF21C5001F029FF34214DF21D500E
:105AB00001F024FF02214DF21E5001F01FFF67216B
:105AC0004DF21F5001F01AFF02214DF2205001F05B
:105AD00015FF84214DF2215001F010FF02214DF2FB
